{
  "_format": "hh-sol-artifact-1",
  "contractName": "ERC721AUpgradeable",
  "sourceName": "erc721a-upgradeable/contracts/ERC721AUpgradeable.sol",
  "abi": [
    {
      "inputs": [],
      "name": "ApprovalCallerNotOwnerNorApproved",
      "type": "error"
    },
    {
      "inputs": [],
      "name": "ApprovalQueryForNonexistentToken",
      "type": "error"
    },
    {
      "inputs": [],
      "name": "BalanceQueryForZeroAddress",
      "type": "error"
    },
    {
      "inputs": [],
      "name": "MintERC2309QuantityExceedsLimit",
      "type": "error"
    },
    {
      "inputs": [],
      "name": "MintToZeroAddress",
      "type": "error"
    },
    {
      "inputs": [],
      "name": "MintZeroQuantity",
      "type": "error"
    },
    {
      "inputs": [],
      "name": "NotCompatibleWithSpotMints",
      "type": "error"
    },
    {
      "inputs": [],
      "name": "OwnerQueryForNonexistentToken",
      "type": "error"
    },
    {
      "inputs": [],
      "name": "OwnershipNotInitializedForExtraData",
      "type": "error"
    },
    {
      "inputs": [],
      "name": "SequentialMintExceedsLimit",
      "type": "error"
    },
    {
      "inputs": [],
      "name": "SequentialUpToTooSmall",
      "type": "error"
    },
    {
      "inputs": [],
      "name": "SpotMintTokenIdTooSmall",
      "type": "error"
    },
    {
      "inputs": [],
      "name": "TokenAlreadyExists",
      "type": "error"
    },
    {
      "inputs": [],
      "name": "TransferCallerNotOwnerNorApproved",
      "type": "error"
    },
    {
      "inputs": [],
      "name": "TransferFromIncorrectOwner",
      "type": "error"
    },
    {
      "inputs": [],
      "name": "TransferToNonERC721ReceiverImplementer",
      "type": "error"
    },
    {
      "inputs": [],
      "name": "TransferToZeroAddress",
      "type": "error"
    },
    {
      "inputs": [],
      "name": "URIQueryForNonexistentToken",
      "type": "error"
    },
    {
      "anonymous": false,
      "inputs": [
        {
          "indexed": true,
          "internalType": "address",
          "name": "owner",
          "type": "address"
        },
        {
          "indexed": true,
          "internalType": "address",
          "name": "approved",
          "type": "address"
        },
        {
          "indexed": true,
          "internalType": "uint256",
          "name": "tokenId",
          "type": "uint256"
        }
      ],
      "name": "Approval",
      "type": "event"
    },
    {
      "anonymous": false,
      "inputs": [
        {
          "indexed": true,
          "internalType": "address",
          "name": "owner",
          "type": "address"
        },
        {
          "indexed": true,
          "internalType": "address",
          "name": "operator",
          "type": "address"
        },
        {
          "indexed": false,
          "internalType": "bool",
          "name": "approved",
          "type": "bool"
        }
      ],
      "name": "ApprovalForAll",
      "type": "event"
    },
    {
      "anonymous": false,
      "inputs": [
        {
          "indexed": true,
          "internalType": "uint256",
          "name": "fromTokenId",
          "type": "uint256"
        },
        {
          "indexed": false,
          "internalType": "uint256",
          "name": "toTokenId",
          "type": "uint256"
        },
        {
          "indexed": true,
          "internalType": "address",
          "name": "from",
          "type": "address"
        },
        {
          "indexed": true,
          "internalType": "address",
          "name": "to",
          "type": "address"
        }
      ],
      "name": "ConsecutiveTransfer",
      "type": "event"
    },
    {
      "anonymous": false,
      "inputs": [
        {
          "indexed": true,
          "internalType": "address",
          "name": "from",
          "type": "address"
        },
        {
          "indexed": true,
          "internalType": "address",
          "name": "to",
          "type": "address"
        },
        {
          "indexed": true,
          "internalType": "uint256",
          "name": "tokenId",
          "type": "uint256"
        }
      ],
      "name": "Transfer",
      "type": "event"
    },
    {
      "inputs": [
        {
          "internalType": "address",
          "name": "to",
          "type": "address"
        },
        {
          "internalType": "uint256",
          "name": "tokenId",
          "type": "uint256"
        }
      ],
      "name": "approve",
      "outputs": [],
      "stateMutability": "payable",
      "type": "function"
    },
    {
      "inputs": [
        {
          "internalType": "address",
          "name": "owner",
          "type": "address"
        }
      ],
      "name": "balanceOf",
      "outputs": [
        {
          "internalType": "uint256",
          "name": "",
          "type": "uint256"
        }
      ],
      "stateMutability": "view",
      "type": "function"
    },
    {
      "inputs": [
        {
          "internalType": "uint256",
          "name": "tokenId",
          "type": "uint256"
        }
      ],
      "name": "getApproved",
      "outputs": [
        {
          "internalType": "address",
          "name": "",
          "type": "address"
        }
      ],
      "stateMutability": "view",
      "type": "function"
    },
    {
      "inputs": [
        {
          "internalType": "address",
          "name": "owner",
          "type": "address"
        },
        {
          "internalType": "address",
          "name": "operator",
          "type": "address"
        }
      ],
      "name": "isApprovedForAll",
      "outputs": [
        {
          "internalType": "bool",
          "name": "",
          "type": "bool"
        }
      ],
      "stateMutability": "view",
      "type": "function"
    },
    {
      "inputs": [],
      "name": "name",
      "outputs": [
        {
          "internalType": "string",
          "name": "",
          "type": "string"
        }
      ],
      "stateMutability": "view",
      "type": "function"
    },
    {
      "inputs": [
        {
          "internalType": "uint256",
          "name": "tokenId",
          "type": "uint256"
        }
      ],
      "name": "ownerOf",
      "outputs": [
        {
          "internalType": "address",
          "name": "",
          "type": "address"
        }
      ],
      "stateMutability": "view",
      "type": "function"
    },
    {
      "inputs": [
        {
          "internalType": "address",
          "name": "from",
          "type": "address"
        },
        {
          "internalType": "address",
          "name": "to",
          "type": "address"
        },
        {
          "internalType": "uint256",
          "name": "tokenId",
          "type": "uint256"
        }
      ],
      "name": "safeTransferFrom",
      "outputs": [],
      "stateMutability": "payable",
      "type": "function"
    },
    {
      "inputs": [
        {
          "internalType": "address",
          "name": "from",
          "type": "address"
        },
        {
          "internalType": "address",
          "name": "to",
          "type": "address"
        },
        {
          "internalType": "uint256",
          "name": "tokenId",
          "type": "uint256"
        },
        {
          "internalType": "bytes",
          "name": "_data",
          "type": "bytes"
        }
      ],
      "name": "safeTransferFrom",
      "outputs": [],
      "stateMutability": "payable",
      "type": "function"
    },
    {
      "inputs": [
        {
          "internalType": "address",
          "name": "operator",
          "type": "address"
        },
        {
          "internalType": "bool",
          "name": "approved",
          "type": "bool"
        }
      ],
      "name": "setApprovalForAll",
      "outputs": [],
      "stateMutability": "nonpayable",
      "type": "function"
    },
    {
      "inputs": [
        {
          "internalType": "bytes4",
          "name": "interfaceId",
          "type": "bytes4"
        }
      ],
      "name": "supportsInterface",
      "outputs": [
        {
          "internalType": "bool",
          "name": "",
          "type": "bool"
        }
      ],
      "stateMutability": "view",
      "type": "function"
    },
    {
      "inputs": [],
      "name": "symbol",
      "outputs": [
        {
          "internalType": "string",
          "name": "",
          "type": "string"
        }
      ],
      "stateMutability": "view",
      "type": "function"
    },
    {
      "inputs": [
        {
          "internalType": "uint256",
          "name": "tokenId",
          "type": "uint256"
        }
      ],
      "name": "tokenURI",
      "outputs": [
        {
          "internalType": "string",
          "name": "",
          "type": "string"
        }
      ],
      "stateMutability": "view",
      "type": "function"
    },
    {
      "inputs": [],
      "name": "totalSupply",
      "outputs": [
        {
          "internalType": "uint256",
          "name": "result",
          "type": "uint256"
        }
      ],
      "stateMutability": "view",
      "type": "function"
    },
    {
      "inputs": [
        {
          "internalType": "address",
          "name": "from",
          "type": "address"
        },
        {
          "internalType": "address",
          "name": "to",
          "type": "address"
        },
        {
          "internalType": "uint256",
          "name": "tokenId",
          "type": "uint256"
        }
      ],
      "name": "transferFrom",
      "outputs": [],
      "stateMutability": "payable",
      "type": "function"
    }
  ],
  "bytecode": "0x608060405234801561001057600080fd5b50610ee9806100206000396000f3fe6080604052600436106100dd5760003560e01c80636352211e1161007f578063a22cb46511610059578063a22cb46514610224578063b88d4fde14610244578063c87b56dd14610257578063e985e9c51461027757600080fd5b80636352211e146101cf57806370a08231146101ef57806395d89b411461020f57600080fd5b8063095ea7b3116100bb578063095ea7b31461017157806318160ddd1461018657806323b872dd146101a957806342842e0e146101bc57600080fd5b806301ffc9a7146100e257806306fdde0314610117578063081812fc14610139575b600080fd5b3480156100ee57600080fd5b506101026100fd366004610b39565b610297565b60405190151581526020015b60405180910390f35b34801561012357600080fd5b5061012c6102e9565b60405161010e9190610ba6565b34801561014557600080fd5b50610159610154366004610bb9565b610384565b6040516001600160a01b03909116815260200161010e565b61018461017f366004610be9565b6103c8565b005b34801561019257600080fd5b5061019b6103d8565b60405190815260200161010e565b6101846101b7366004610c13565b6103f7565b6101846101ca366004610c13565b6105ba565b3480156101db57600080fd5b506101596101ea366004610bb9565b6105da565b3480156101fb57600080fd5b5061019b61020a366004610c4f565b6105e5565b34801561021b57600080fd5b5061012c610645565b34801561023057600080fd5b5061018461023f366004610c6a565b61065d565b610184610252366004610cbc565b6106da565b34801561026357600080fd5b5061012c610272366004610bb9565b61071b565b34801561028357600080fd5b50610102610292366004610d98565b6107a3565b60006301ffc9a760e01b6001600160e01b0319831614806102c857506380ac58cd60e01b6001600160e01b03198316145b806102e35750635b5e139f60e01b6001600160e01b03198316145b92915050565b60606102f36107e0565b600201805461030190610dcb565b80601f016020809104026020016040519081016040528092919081815260200182805461032d90610dcb565b801561037a5780601f1061034f5761010080835404028352916020019161037a565b820191906000526020600020905b81548152906001019060200180831161035d57829003601f168201915b5050505050905090565b600061038f82610804565b6103a3576103a36333d1c03960e21b61085c565b6103ab6107e0565b60009283526006016020525060409020546001600160a01b031690565b6103d482826001610866565b5050565b6000806103e36107e0565b600101546103ef6107e0565b540303905090565b600061040282610917565b6001600160a01b0394851694909150811684146104285761042862a1148160e81b61085c565b600080610434846109d2565b9150915061045981876104443390565b6001600160a01b039081169116811491141790565b61047b5761046786336107a3565b61047b5761047b632ce44b5f60e11b61085c565b801561048657600082555b61048e6107e0565b6001600160a01b03871660009081526005919091016020526040902080546000190190556104ba6107e0565b6001600160a01b03861660008181526005929092016020526040909120805460010190554260a01b17600160e11b176104f16107e0565b60008681526004919091016020526040812091909155600160e11b8416900361056757600184016105206107e0565b600082815260049190910160205260408120549003610565576105416107e0565b54811461056557836105516107e0565b600083815260049190910160205260409020555b505b6001600160a01b0385168481887fddf252ad1be2c89b69c2b068fc378daa952ba7f163c4a11628f55a4df523b3ef600080a4806000036105b1576105b1633a954ecd60e21b61085c565b50505050505050565b6105d5838383604051806020016040528060008152506106da565b505050565b60006102e382610917565b60006001600160a01b038216610605576106056323d3ad8160e21b61085c565b67ffffffffffffffff6106166107e0565b6005016000846001600160a01b03166001600160a01b0316815260200190815260200160002054169050919050565b606061064f6107e0565b600301805461030190610dcb565b806106666107e0565b336000818152600792909201602090815260408084206001600160a01b03881680865290835293819020805460ff19169515159590951790945592518415158152919290917f17307eab39ab6107e8899845ad3d59bd9653f200f220920489ca2b5937696c31910160405180910390a35050565b6106e58484846103f7565b6001600160a01b0383163b1561071557610701848484846109fa565b610715576107156368d2bf6b60e11b61085c565b50505050565b606061072682610804565b61073a5761073a630a14c4b560e41b61085c565b600061075160408051602081019091526000815290565b90508051600003610771576040518060200160405280600081525061079c565b8061077b84610adc565b60405160200161078c929190610e05565b6040516020818303038152906040525b9392505050565b60006107ad6107e0565b6001600160a01b039384166000908152600791909101602090815260408083209490951682529290925250205460ff1690565b7f2569078dfb4b0305704d3008e7403993ae9601b85f7ae5e742de3de8f8011c4090565b600061080e6107e0565b548210156108575760005b6108216107e0565b60008481526004919091016020526040812054915081900361084d5761084683610e34565b9250610819565b600160e01b161590505b919050565b8060005260046000fd5b6000610871836105da565b90508180156108895750336001600160a01b03821614155b156108ac5761089881336107a3565b6108ac576108ac6367d9dca160e11b61085c565b836108b56107e0565b6000858152600691909101602052604080822080546001600160a01b0319166001600160a01b0394851617905551859287811692908516917f8c5be1e5ebec7d5bd14f71427d1e84f3dd0314c0f7b2291e5b200ac8c7c3b9259190a450505050565b60006109216107e0565b600083815260049190910160205260409020549050806000036109af576109466107e0565b54821061095d5761095d636f96cda160e11b61085c565b6109656107e0565b60001990920160008181526004939093016020526040909220549050801561095d57600160e01b811660000361099a57919050565b6109aa636f96cda160e11b61085c565b61095d565b600160e01b81166000036109c257919050565b610857636f96cda160e11b61085c565b60008060006109df6107e0565b60009485526006016020525050604090912080549092909150565b604051630a85bd0160e11b81526000906001600160a01b0385169063150b7a0290610a2f903390899088908890600401610e59565b6020604051808303816000875af1925050508015610a6a575060408051601f3d908101601f19168201909252610a6791810190610e96565b60015b610abf573d808015610a98576040519150601f19603f3d011682016040523d82523d6000602084013e610a9d565b606091505b508051600003610ab757610ab76368d2bf6b60e11b61085c565b805181602001fd5b6001600160e01b031916630a85bd0160e11b149050949350505050565b606060a06040510180604052602081039150506000815280825b600183039250600a81066030018353600a900480610af65750819003601f19909101908152919050565b6001600160e01b031981168114610b3657600080fd5b50565b600060208284031215610b4b57600080fd5b813561079c81610b20565b60005b83811015610b71578181015183820152602001610b59565b50506000910152565b60008151808452610b92816020860160208601610b56565b601f01601f19169290920160200192915050565b60208152600061079c6020830184610b7a565b600060208284031215610bcb57600080fd5b5035919050565b80356001600160a01b038116811461085757600080fd5b60008060408385031215610bfc57600080fd5b610c0583610bd2565b946020939093013593505050565b600080600060608486031215610c2857600080fd5b610c3184610bd2565b9250610c3f60208501610bd2565b9150604084013590509250925092565b600060208284031215610c6157600080fd5b61079c82610bd2565b60008060408385031215610c7d57600080fd5b610c8683610bd2565b915060208301358015158114610c9b57600080fd5b809150509250929050565b634e487b7160e01b600052604160045260246000fd5b60008060008060808587031215610cd257600080fd5b610cdb85610bd2565b9350610ce960208601610bd2565b925060408501359150606085013567ffffffffffffffff80821115610d0d57600080fd5b818701915087601f830112610d2157600080fd5b813581811115610d3357610d33610ca6565b604051601f8201601f19908116603f01168101908382118183101715610d5b57610d5b610ca6565b816040528281528a6020848701011115610d7457600080fd5b82602086016020830137600060208483010152809550505050505092959194509250565b60008060408385031215610dab57600080fd5b610db483610bd2565b9150610dc260208401610bd2565b90509250929050565b600181811c90821680610ddf57607f821691505b602082108103610dff57634e487b7160e01b600052602260045260246000fd5b50919050565b60008351610e17818460208801610b56565b835190830190610e2b818360208801610b56565b01949350505050565b600081610e5157634e487b7160e01b600052601160045260246000fd5b506000190190565b6001600160a01b0385811682528416602082015260408101839052608060608201819052600090610e8c90830184610b7a565b9695505050505050565b600060208284031215610ea857600080fd5b815161079c81610b2056fea264697066735822122014dfdc9679ba4071e4a6fb3191a79ffcaad29c462e7467ff5b34d3a46a17e0bf64736f6c63430008140033",
  "linkReferences": {},
  "deployedLinkReferences": {}
}