{
  "_format": "hh-sol-artifact-1",
  "contractName": "FileInfo",
  "sourceName": "contracts/FileInfo.sol",
  "abi": [
    {
      "inputs": [],
      "stateMutability": "nonpayable",
      "type": "constructor"
    },
    {
      "inputs": [
        {
          "internalType": "uint256",
          "name": "chainid",
          "type": "uint256"
        }
      ],
      "name": "ChainNotSupported",
      "type": "error"
    },
    {
      "anonymous": false,
      "inputs": [
        {
          "indexed": false,
          "internalType": "uint256",
          "name": "tableId",
          "type": "uint256"
        },
        {
          "indexed": false,
          "internalType": "string",
          "name": "tableName",
          "type": "string"
        }
      ],
      "name": "Delete",
      "type": "event"
    },
    {
      "anonymous": false,
      "inputs": [
        {
          "indexed": false,
          "internalType": "uint256",
          "name": "tableId",
          "type": "uint256"
        },
        {
          "indexed": false,
          "internalType": "string",
          "name": "tableName",
          "type": "string"
        },
        {
          "indexed": false,
          "internalType": "string",
          "name": "rootId",
          "type": "string"
        },
        {
          "indexed": false,
          "internalType": "string",
          "name": "fileCid",
          "type": "string"
        }
      ],
      "name": "Insert",
      "type": "event"
    },
    {
      "anonymous": false,
      "inputs": [
        {
          "indexed": false,
          "internalType": "uint256",
          "name": "tableId",
          "type": "uint256"
        },
        {
          "indexed": false,
          "internalType": "string",
          "name": "tableName",
          "type": "string"
        },
        {
          "indexed": false,
          "internalType": "address",
          "name": "owner",
          "type": "address"
        }
      ],
      "name": "TableCreated",
      "type": "event"
    },
    {
      "anonymous": false,
      "inputs": [
        {
          "indexed": false,
          "internalType": "uint256",
          "name": "tableId",
          "type": "uint256"
        },
        {
          "indexed": false,
          "internalType": "string",
          "name": "tableName",
          "type": "string"
        },
        {
          "indexed": false,
          "internalType": "string",
          "name": "rootId",
          "type": "string"
        },
        {
          "indexed": false,
          "internalType": "string",
          "name": "fileCid",
          "type": "string"
        }
      ],
      "name": "Update",
      "type": "event"
    },
    {
      "anonymous": false,
      "inputs": [
        {
          "indexed": false,
          "internalType": "bytes32",
          "name": "rootHash",
          "type": "bytes32"
        }
      ],
      "name": "UpdateRootHash",
      "type": "event"
    },
    {
      "inputs": [
        {
          "internalType": "uint64",
          "name": "id",
          "type": "uint64"
        }
      ],
      "name": "deleteFileInfo",
      "outputs": [],
      "stateMutability": "nonpayable",
      "type": "function"
    },
    {
      "inputs": [
        {
          "internalType": "address",
          "name": "",
          "type": "address"
        }
      ],
      "name": "getPolicy",
      "outputs": [
        {
          "components": [
            {
              "internalType": "bool",
              "name": "allowInsert",
              "type": "bool"
            },
            {
              "internalType": "bool",
              "name": "allowUpdate",
              "type": "bool"
            },
            {
              "internalType": "bool",
              "name": "allowDelete",
              "type": "bool"
            },
            {
              "internalType": "string",
              "name": "whereClause",
              "type": "string"
            },
            {
              "internalType": "string",
              "name": "withCheck",
              "type": "string"
            },
            {
              "internalType": "string[]",
              "name": "updatableColumns",
              "type": "string[]"
            }
          ],
          "internalType": "struct TablelandPolicy",
          "name": "",
          "type": "tuple"
        }
      ],
      "stateMutability": "payable",
      "type": "function"
    },
    {
      "inputs": [
        {
          "internalType": "address",
          "name": "",
          "type": "address"
        },
        {
          "internalType": "uint256",
          "name": "",
          "type": "uint256"
        }
      ],
      "name": "getPolicy",
      "outputs": [
        {
          "components": [
            {
              "internalType": "bool",
              "name": "allowInsert",
              "type": "bool"
            },
            {
              "internalType": "bool",
              "name": "allowUpdate",
              "type": "bool"
            },
            {
              "internalType": "bool",
              "name": "allowDelete",
              "type": "bool"
            },
            {
              "internalType": "string",
              "name": "whereClause",
              "type": "string"
            },
            {
              "internalType": "string",
              "name": "withCheck",
              "type": "string"
            },
            {
              "internalType": "string[]",
              "name": "updatableColumns",
              "type": "string[]"
            }
          ],
          "internalType": "struct TablelandPolicy",
          "name": "",
          "type": "tuple"
        }
      ],
      "stateMutability": "payable",
      "type": "function"
    },
    {
      "inputs": [],
      "name": "getRootHash",
      "outputs": [
        {
          "internalType": "bytes32",
          "name": "",
          "type": "bytes32"
        }
      ],
      "stateMutability": "view",
      "type": "function"
    },
    {
      "inputs": [],
      "name": "getTableId",
      "outputs": [
        {
          "internalType": "uint256",
          "name": "",
          "type": "uint256"
        }
      ],
      "stateMutability": "view",
      "type": "function"
    },
    {
      "inputs": [],
      "name": "getTableName",
      "outputs": [
        {
          "internalType": "string",
          "name": "",
          "type": "string"
        }
      ],
      "stateMutability": "view",
      "type": "function"
    },
    {
      "inputs": [
        {
          "internalType": "string",
          "name": "_rootId",
          "type": "string"
        },
        {
          "internalType": "string",
          "name": "_fileCid",
          "type": "string"
        }
      ],
      "name": "insertFileInfo",
      "outputs": [],
      "stateMutability": "nonpayable",
      "type": "function"
    },
    {
      "inputs": [
        {
          "internalType": "address",
          "name": "",
          "type": "address"
        },
        {
          "internalType": "address",
          "name": "",
          "type": "address"
        },
        {
          "internalType": "uint256",
          "name": "",
          "type": "uint256"
        },
        {
          "internalType": "bytes",
          "name": "",
          "type": "bytes"
        }
      ],
      "name": "onERC721Received",
      "outputs": [
        {
          "internalType": "bytes4",
          "name": "",
          "type": "bytes4"
        }
      ],
      "stateMutability": "nonpayable",
      "type": "function"
    },
    {
      "inputs": [],
      "name": "setAccessControl",
      "outputs": [],
      "stateMutability": "nonpayable",
      "type": "function"
    },
    {
      "inputs": [
        {
          "internalType": "bytes32",
          "name": "_rootHash",
          "type": "bytes32"
        }
      ],
      "name": "setRootHash",
      "outputs": [],
      "stateMutability": "nonpayable",
      "type": "function"
    },
    {
      "inputs": [
        {
          "internalType": "uint64",
          "name": "id",
          "type": "uint64"
        },
        {
          "internalType": "string",
          "name": "_rootId",
          "type": "string"
        },
        {
          "internalType": "string",
          "name": "_fileCid",
          "type": "string"
        }
      ],
      "name": "updateFileInfo",
      "outputs": [],
      "stateMutability": "nonpayable",
      "type": "function"
    }
  ],
  "bytecode": "0x60806040523480156200001157600080fd5b506200001c62000179565b6001600160a01b031663a15ab08d30620000746040518060600160405280602f815260200162001dd1602f913960408051808201909152600e81526d66696c65696e666f5f7461626c6560901b60208201526200033f565b6040518363ffffffff1660e01b8152600401620000939291906200054f565b6020604051808303816000875af1158015620000b3573d6000803e3d6000fd5b505050506040513d601f19601f82011682018060405250810190620000d9919062000593565b600081905560408051808201909152600e81526d66696c65696e666f5f7461626c6560901b60208201526200010e9162000379565b6001906200011d908262000652565b50600380546001600160a01b031916339081179091556000546040517f1f223a276457ac3175effc37c6f5eb1d73f2b407fecc20c05f53dc5045aeec41926200016b9291600191906200071e565b60405180910390a1620008bc565b6000466001036200019d575073012969f7e3439a9b04025b5a049eb9bad82a8c1290565b46600a03620001bf575073fad44bf5b843de943a09d4f3e84949a11d3aa3e690565b4661a4b103620001e25750739abd75e8640871a5a20d3b4ee6330a04c962affd90565b4661a4ba03620002055750731a22854c5b1642760a827f20137a67930ae108d290565b46608903620002275750735c4e6a9e5c1e1bf445a062006faf19ea6c49afea90565b4661013a036200024a57507359ef8bf2d6c102b4c42aef9189e1a9f0abfd652d90565b4662aa36a7036200026e575073c50c62498448acc8dbde43da77f8d5d2e2c7597d90565b466101a40362000291575073c72e8a7be04f2469f8c2db3f1bdf69a7d516abba90565b4662066eee03620002b5575073223a74b8323914afdc3ff1e5005564dc17231d6e90565b466201388103620002d95750734b48841d4b32c4650e4abc117a03fe8b51f38f6890565b466204cb2f03620002fd575073030bcf3d50cad04c2e57391b12740982a930862190565b46617a690362000320575073e7f1725e7734ce288f8367e1bb143e90bb3f051290565b60405163264e42cf60e01b815246600482015260240160405180910390fd5b6060816200034d46620003a6565b846040516020016200036293929190620007d0565b604051602081830303815290604052905092915050565b6060826200038746620003a6565b6200039284620003a6565b60405160200162000362939291906200085c565b60606000620003b5836200043f565b60010190506000816001600160401b03811115620003d757620003d7620005ad565b6040519080825280601f01601f19166020018201604052801562000402576020820181803683370190505b5090508181016020015b600019016f181899199a1a9b1b9c1cb0b131b232b360811b600a86061a8153600a85049450846200040c57509392505050565b6000807a184f03e93ff9f4daa797ed6e38ed64bf6a1f010000000000000000831062000489577a184f03e93ff9f4daa797ed6e38ed64bf6a1f010000000000000000830492506040015b6d04ee2d6d415b85acef81000000008310620004b6576d04ee2d6d415b85acef8100000000830492506020015b662386f26fc100008310620004d557662386f26fc10000830492506010015b6305f5e1008310620004ee576305f5e100830492506008015b61271083106200050357612710830492506004015b6064831062000516576064830492506002015b600a831062000523576001015b92915050565b60005b83811015620005465781810151838201526020016200052c565b50506000910152565b60018060a01b038316815260406020820152600082518060408401526200057e81606085016020870162000529565b601f01601f1916919091016060019392505050565b600060208284031215620005a657600080fd5b5051919050565b634e487b7160e01b600052604160045260246000fd5b600181811c90821680620005d857607f821691505b602082108103620005f957634e487b7160e01b600052602260045260246000fd5b50919050565b601f8211156200064d57600081815260208120601f850160051c81016020861015620006285750805b601f850160051c820191505b81811015620006495782815560010162000634565b5050505b505050565b81516001600160401b038111156200066e576200066e620005ad565b62000686816200067f8454620005c3565b84620005ff565b602080601f831160018114620006be5760008415620006a55750858301515b600019600386901b1c1916600185901b17855562000649565b600085815260208120601f198616915b82811015620006ef57888601518255948401946001909101908401620006ce565b50858210156200070e5787850151600019600388901b60f8161c191681555b5050505050600190811b01905550565b83815260006020606081840152600085546200073a81620005c3565b80606087015260806001808416600081146200075f57600181146200077a57620007aa565b60ff1985168984015283151560051b890183019550620007aa565b8a6000528660002060005b85811015620007a25781548b820186015290830190880162000785565b8a0184019650505b505050506001600160a01b0386166040860152509150620007c89050565b949350505050565b6c021a922a0aa22902a20a126229609d1b815260008451620007fa81600d85016020890162000529565b605f60f81b600d9184019182015284516200081d81600e84016020890162000529565b600560fb1b600e929091019182015283516200084181600f84016020880162000529565b602960f81b600f929091019182015260100195945050505050565b600084516200087081846020890162000529565b8083019050605f60f81b808252855162000892816001850160208a0162000529565b60019201918201528351620008af81600284016020880162000529565b0160020195945050505050565b61150580620008cc6000396000f3fe60806040526004361061009c5760003560e01c80635d5a33a2116100645780635d5a33a21461016c57806366df322e1461018e57806380759f1f146101a157806388e4f1cb146101c057806397f669c8146101d5578063ee3b51b4146101ea57600080fd5b80630133e044146100a1578063150b7a02146100c35780632d7eae661461010c5780633791dc6a1461012c5780634b5193731461014c575b600080fd5b3480156100ad57600080fd5b506100c16100bc366004610d86565b61020a565b005b3480156100cf57600080fd5b506100ee6100de366004610e06565b630a85bd0160e11b949350505050565b6040516001600160e01b031990911681526020015b60405180910390f35b34801561011857600080fd5b506100c1610127366004610e82565b610344565b61013f61013a366004610e9b565b61037f565b6040516101039190610f06565b34801561015857600080fd5b506100c1610167366004610fe0565b6103b3565b34801561017857600080fd5b506101816104ba565b6040516101039190610ffb565b61013f61019c36600461100e565b6104f3565b3480156101ad57600080fd5b506002545b604051908152602001610103565b3480156101cc57600080fd5b506000546101b2565b3480156101e157600080fd5b506100c161062a565b3480156101f657600080fd5b506100c1610205366004611038565b610703565b610212610854565b6001600160a01b031663377af0da306000546102b06040518060400160405280600e81526020016d66696c65696e666f5f7461626c6560901b8152506000546040518060400160405280600f81526020016e1c9bdbdd12590b08199a5b1950da59608a1b8152506102828a610a0a565b61028b8a610a0a565b60405160200161029c9291906110ac565b604051602081830303815290604052610a33565b6040518463ffffffff1660e01b81526004016102ce939291906110e8565b600060405180830381600087803b1580156102e857600080fd5b505af11580156102fc573d6000803e3d6000fd5b505050507fb7379d6df185794b466f2cfc6f723deca1680b4062a01826168681a7514a5aa86000546001848460405161033894939291906111bc565b60405180910390a15050565b60028190556040518181527f02464dc1edf59068643c5a03b10d5966b709dfa3bf1d6743e75e60cfae2c63e39060200160405180910390a150565b6040805160c08101825260008082526020820181905291810182905260608082018190526080820181905260a08201529080fd5b60006103c88267ffffffffffffffff16610a72565b6040516020016103d89190611206565b60405160208183030381529060405290506103f1610854565b6001600160a01b031663377af0da306000546104366040518060400160405280600e81526020016d66696c65696e666f5f7461626c6560901b81525060005487610b05565b6040518463ffffffff1660e01b8152600401610454939291906110e8565b600060405180830381600087803b15801561046e57600080fd5b505af1158015610482573d6000803e3d6000fd5b505050507f7b38a39fc9f8cea88036a49ca103f0521f7758af730b4ca9e0ceacfdf8c802356000546001604051610338929190611231565b60606104ee6040518060400160405280600e81526020016d66696c65696e666f5f7461626c6560901b815250600054610b41565b905090565b6040805160c08101825260008082526020820181905281830181905260608083018190526080830181905260a083018190528351600280825291810190945291929091816020015b606081526020019060019003908161053b579050509050604051806040016040528060068152602001651c9bdbdd125960d21b8152508160008151811061058457610584611252565b602002602001018190525060405180604001604052806007815260200166199a5b1950da5960ca1b815250816001815181106105c2576105c2611252565b60200260200101819052506040518060c001604052806001151581526020016001151581526020016001151581526020016040518060200160405280600081525081526020016040518060200160405280600081525081526020018281525091505092915050565b6003546001600160a01b031633146106895760405162461bcd60e51b815260206004820152601860248201527f6d73672e73656e646572206d757374206265206f776e6572000000000000000060448201526064015b60405180910390fd5b610691610854565b600054604051638bb0ab9760e01b81523060048201819052602482019290925260448101919091526001600160a01b039190911690638bb0ab9790606401600060405180830381600087803b1580156106e957600080fd5b505af11580156106fd573d6000803e3d6000fd5b50505050565b600061070e83610a0a565b61071783610a0a565b604051602001610728929190611268565b6040516020818303038152906040529050600061074e8567ffffffffffffffff16610a72565b60405160200161075e9190611206565b6040516020818303038152906040529050610777610854565b6001600160a01b031663377af0da306000546107bd6040518060400160405280600e81526020016d66696c65696e666f5f7461626c6560901b8152506000548888610b7f565b6040518463ffffffff1660e01b81526004016107db939291906110e8565b600060405180830381600087803b1580156107f557600080fd5b505af1158015610809573d6000803e3d6000fd5b505050507feb49f7181cc0da7406125224373eee9a7e5b640fd401f42801b825006aac841b6000546001868660405161084594939291906111bc565b60405180910390a15050505050565b600046600103610877575073012969f7e3439a9b04025b5a049eb9bad82a8c1290565b46600a03610898575073fad44bf5b843de943a09d4f3e84949a11d3aa3e690565b4661a4b1036108ba5750739abd75e8640871a5a20d3b4ee6330a04c962affd90565b4661a4ba036108dc5750731a22854c5b1642760a827f20137a67930ae108d290565b466089036108fd5750735c4e6a9e5c1e1bf445a062006faf19ea6c49afea90565b4661013a0361091f57507359ef8bf2d6c102b4c42aef9189e1a9f0abfd652d90565b4662aa36a703610942575073c50c62498448acc8dbde43da77f8d5d2e2c7597d90565b466101a403610964575073c72e8a7be04f2469f8c2db3f1bdf69a7d516abba90565b4662066eee03610987575073223a74b8323914afdc3ff1e5005564dc17231d6e90565b4662013881036109aa5750734b48841d4b32c4650e4abc117a03fe8b51f38f6890565b466204cb2f036109cd575073030bcf3d50cad04c2e57391b12740982a930862190565b46617a69036109ef575073e7f1725e7734ce288f8367e1bb143e90bb3f051290565b60405163264e42cf60e01b8152466004820152602401610680565b606081604051602001610a1d91906112c8565b6040516020818303038152906040529050919050565b60606000610a418686610b41565b9050808484604051602001610a58939291906112f6565b604051602081830303815290604052915050949350505050565b60606000610a7f83610bfa565b600101905060008167ffffffffffffffff811115610a9f57610a9f610cd3565b6040519080825280601f01601f191660200182016040528015610ac9576020820181803683370190505b5090508181016020015b600019016f181899199a1a9b1b9c1cb0b131b232b360811b600a86061a8153600a8504945084610ad357509392505050565b60606000610b138585610b41565b90508083604051602001610b28929190611382565b6040516020818303038152906040529150509392505050565b606082610b4d46610a72565b610b5684610a72565b604051602001610b68939291906113dc565b604051602081830303815290604052905092915050565b60606000610b8d8686610b41565b60408051602081019091526000815284519192509015610bca5783604051602001610bb89190611436565b60405160208183030381529060405290505b818582604051602001610bdf93929190611465565b60405160208183030381529060405292505050949350505050565b60008072184f03e93ff9f4daa797ed6e38ed64bf6a1f0160401b8310610c395772184f03e93ff9f4daa797ed6e38ed64bf6a1f0160401b830492506040015b6d04ee2d6d415b85acef81000000008310610c65576d04ee2d6d415b85acef8100000000830492506020015b662386f26fc100008310610c8357662386f26fc10000830492506010015b6305f5e1008310610c9b576305f5e100830492506008015b6127108310610caf57612710830492506004015b60648310610cc1576064830492506002015b600a8310610ccd576001015b92915050565b634e487b7160e01b600052604160045260246000fd5b600067ffffffffffffffff80841115610d0457610d04610cd3565b604051601f8501601f19908116603f01168101908282118183101715610d2c57610d2c610cd3565b81604052809350858152868686011115610d4557600080fd5b858560208301376000602087830101525050509392505050565b600082601f830112610d7057600080fd5b610d7f83833560208501610ce9565b9392505050565b60008060408385031215610d9957600080fd5b823567ffffffffffffffff80821115610db157600080fd5b610dbd86838701610d5f565b93506020850135915080821115610dd357600080fd5b50610de085828601610d5f565b9150509250929050565b80356001600160a01b0381168114610e0157600080fd5b919050565b60008060008060808587031215610e1c57600080fd5b610e2585610dea565b9350610e3360208601610dea565b925060408501359150606085013567ffffffffffffffff811115610e5657600080fd5b8501601f81018713610e6757600080fd5b610e7687823560208401610ce9565b91505092959194509250565b600060208284031215610e9457600080fd5b5035919050565b600060208284031215610ead57600080fd5b610d7f82610dea565b60005b83811015610ed1578181015183820152602001610eb9565b50506000910152565b60008151808452610ef2816020860160208601610eb6565b601f01601f19169290920160200192915050565b6000602080835283511515818401528084015115156040840152604084015115156060840152606084015160c06080850152610f4560e0850182610eda565b90506080850151601f19808684030160a0870152610f638383610eda565b60a0880151878203830160c089015280518083529194508501925084840190600581901b8501860160005b82811015610fba5784878303018452610fa8828751610eda565b95880195938801939150600101610f8e565b509998505050505050505050565b803567ffffffffffffffff81168114610e0157600080fd5b600060208284031215610ff257600080fd5b610d7f82610fc8565b602081526000610d7f6020830184610eda565b6000806040838503121561102157600080fd5b61102a83610dea565b946020939093013593505050565b60008060006060848603121561104d57600080fd5b61105684610fc8565b9250602084013567ffffffffffffffff8082111561107357600080fd5b61107f87838801610d5f565b9350604086013591508082111561109557600080fd5b506110a286828701610d5f565b9150509250925092565b600083516110be818460208801610eb6565b600b60fa1b90830190815283516110dc816001840160208801610eb6565b01600101949350505050565b60018060a01b038416815282602082015260606040820152600061110f6060830184610eda565b95945050505050565b8054600090600181811c908083168061113257607f831692505b6020808410820361115357634e487b7160e01b600052602260045260246000fd5b8388526020880182801561116e5760018114611184576111af565b60ff198716825285151560051b820197506111af565b60008981526020902060005b878110156111a957815484820152908601908401611190565b83019850505b5050505050505092915050565b8481526080602082015260006111d56080830186611118565b82810360408401526111e78186610eda565b905082810360608401526111fb8185610eda565b979650505050505050565b6269643d60e81b815260008251611224816003850160208701610eb6565b9190910160030192915050565b82815260406020820152600061124a6040830184611118565b949350505050565b634e487b7160e01b600052603260045260246000fd5b66726f6f7449643d60c81b81526000835161128a816007850160208801610eb6565b600b60fa1b6007918401918201526766696c654369643d60c01b600882015283516112bc816010840160208801610eb6565b01601001949350505050565b6000602760f81b80835283516112e5816001860160208801610eb6565b600193019283015250600201919050565b6b024a729a2a92a1024a72a27960a51b81526000845161131d81600c850160208901610eb6565b600560fb1b600c91840191820152845161133e81600d840160208901610eb6565b67052ac8298aa8aa6560c31b600d92909101918201528351611367816015840160208801610eb6565b602960f81b6015929091019182015260160195945050505050565b6b02222a622aa2290232927a6960a51b8152600083516113a981600c850160208801610eb6565b660102ba422a922960cd1b600c9184019182015283516113d0816013840160208801610eb6565b01601301949350505050565b600084516113ee818460208901610eb6565b8083019050605f60f81b808252855161140e816001850160208a01610eb6565b60019201918201528351611429816002840160208801610eb6565b0160020195945050505050565b660102ba422a922960cd1b815260008251611458816007850160208701610eb6565b9190910160070192915050565b6602aa82220aa22960cd1b815260008451611487816007850160208901610eb6565b6401029a2aa160dd1b60079184019182015284516114ac81600c840160208901610eb6565b84519101906114c281600c840160208801610eb6565b01600c019594505050505056fea2646970667358221220a93d30fe60b0855594cc800cc8aa301f81a8d582d4711faf5048529c71c8128064736f6c63430008140033696420696e7465676572207072696d617279206b65792c726f6f74496420746578742c66696c654369642074657874",
  "linkReferences": {},
  "deployedLinkReferences": {}
}