{
  "_format": "hh-sol-artifact-1",
  "contractName": "TablelandTables",
  "sourceName": "@tableland/evm/contracts/TablelandTables.sol",
  "abi": [
    {
      "inputs": [],
      "stateMutability": "nonpayable",
      "type": "constructor"
    },
    {
      "inputs": [],
      "name": "ApprovalCallerNotOwnerNorApproved",
      "type": "error"
    },
    {
      "inputs": [],
      "name": "ApprovalQueryForNonexistentToken",
      "type": "error"
    },
    {
      "inputs": [],
      "name": "BalanceQueryForZeroAddress",
      "type": "error"
    },
    {
      "inputs": [],
      "name": "InvalidQueryRange",
      "type": "error"
    },
    {
      "inputs": [
        {
          "internalType": "uint256",
          "name": "querySize",
          "type": "uint256"
        },
        {
          "internalType": "uint256",
          "name": "maxQuerySize",
          "type": "uint256"
        }
      ],
      "name": "MaxQuerySizeExceeded",
      "type": "error"
    },
    {
      "inputs": [],
      "name": "MintERC2309QuantityExceedsLimit",
      "type": "error"
    },
    {
      "inputs": [],
      "name": "MintToZeroAddress",
      "type": "error"
    },
    {
      "inputs": [],
      "name": "MintZeroQuantity",
      "type": "error"
    },
    {
      "inputs": [],
      "name": "NotCompatibleWithSpotMints",
      "type": "error"
    },
    {
      "inputs": [],
      "name": "OwnerQueryForNonexistentToken",
      "type": "error"
    },
    {
      "inputs": [],
      "name": "OwnershipNotInitializedForExtraData",
      "type": "error"
    },
    {
      "inputs": [],
      "name": "SequentialMintExceedsLimit",
      "type": "error"
    },
    {
      "inputs": [],
      "name": "SequentialUpToTooSmall",
      "type": "error"
    },
    {
      "inputs": [],
      "name": "SpotMintTokenIdTooSmall",
      "type": "error"
    },
    {
      "inputs": [],
      "name": "TokenAlreadyExists",
      "type": "error"
    },
    {
      "inputs": [],
      "name": "TransferCallerNotOwnerNorApproved",
      "type": "error"
    },
    {
      "inputs": [],
      "name": "TransferFromIncorrectOwner",
      "type": "error"
    },
    {
      "inputs": [],
      "name": "TransferToNonERC721ReceiverImplementer",
      "type": "error"
    },
    {
      "inputs": [],
      "name": "TransferToZeroAddress",
      "type": "error"
    },
    {
      "inputs": [],
      "name": "URIQueryForNonexistentToken",
      "type": "error"
    },
    {
      "inputs": [],
      "name": "Unauthorized",
      "type": "error"
    },
    {
      "anonymous": false,
      "inputs": [
        {
          "indexed": false,
          "internalType": "address",
          "name": "previousAdmin",
          "type": "address"
        },
        {
          "indexed": false,
          "internalType": "address",
          "name": "newAdmin",
          "type": "address"
        }
      ],
      "name": "AdminChanged",
      "type": "event"
    },
    {
      "anonymous": false,
      "inputs": [
        {
          "indexed": true,
          "internalType": "address",
          "name": "owner",
          "type": "address"
        },
        {
          "indexed": true,
          "internalType": "address",
          "name": "approved",
          "type": "address"
        },
        {
          "indexed": true,
          "internalType": "uint256",
          "name": "tokenId",
          "type": "uint256"
        }
      ],
      "name": "Approval",
      "type": "event"
    },
    {
      "anonymous": false,
      "inputs": [
        {
          "indexed": true,
          "internalType": "address",
          "name": "owner",
          "type": "address"
        },
        {
          "indexed": true,
          "internalType": "address",
          "name": "operator",
          "type": "address"
        },
        {
          "indexed": false,
          "internalType": "bool",
          "name": "approved",
          "type": "bool"
        }
      ],
      "name": "ApprovalForAll",
      "type": "event"
    },
    {
      "anonymous": false,
      "inputs": [
        {
          "indexed": true,
          "internalType": "address",
          "name": "beacon",
          "type": "address"
        }
      ],
      "name": "BeaconUpgraded",
      "type": "event"
    },
    {
      "anonymous": false,
      "inputs": [
        {
          "indexed": true,
          "internalType": "uint256",
          "name": "fromTokenId",
          "type": "uint256"
        },
        {
          "indexed": false,
          "internalType": "uint256",
          "name": "toTokenId",
          "type": "uint256"
        },
        {
          "indexed": true,
          "internalType": "address",
          "name": "from",
          "type": "address"
        },
        {
          "indexed": true,
          "internalType": "address",
          "name": "to",
          "type": "address"
        }
      ],
      "name": "ConsecutiveTransfer",
      "type": "event"
    },
    {
      "anonymous": false,
      "inputs": [
        {
          "indexed": false,
          "internalType": "address",
          "name": "owner",
          "type": "address"
        },
        {
          "indexed": false,
          "internalType": "uint256",
          "name": "tableId",
          "type": "uint256"
        },
        {
          "indexed": false,
          "internalType": "string",
          "name": "statement",
          "type": "string"
        }
      ],
      "name": "CreateTable",
      "type": "event"
    },
    {
      "anonymous": false,
      "inputs": [
        {
          "indexed": false,
          "internalType": "uint8",
          "name": "version",
          "type": "uint8"
        }
      ],
      "name": "Initialized",
      "type": "event"
    },
    {
      "anonymous": false,
      "inputs": [
        {
          "indexed": true,
          "internalType": "address",
          "name": "previousOwner",
          "type": "address"
        },
        {
          "indexed": true,
          "internalType": "address",
          "name": "newOwner",
          "type": "address"
        }
      ],
      "name": "OwnershipTransferred",
      "type": "event"
    },
    {
      "anonymous": false,
      "inputs": [
        {
          "indexed": false,
          "internalType": "address",
          "name": "account",
          "type": "address"
        }
      ],
      "name": "Paused",
      "type": "event"
    },
    {
      "anonymous": false,
      "inputs": [
        {
          "indexed": false,
          "internalType": "address",
          "name": "caller",
          "type": "address"
        },
        {
          "indexed": false,
          "internalType": "bool",
          "name": "isOwner",
          "type": "bool"
        },
        {
          "indexed": false,
          "internalType": "uint256",
          "name": "tableId",
          "type": "uint256"
        },
        {
          "indexed": false,
          "internalType": "string",
          "name": "statement",
          "type": "string"
        },
        {
          "components": [
            {
              "internalType": "bool",
              "name": "allowInsert",
              "type": "bool"
            },
            {
              "internalType": "bool",
              "name": "allowUpdate",
              "type": "bool"
            },
            {
              "internalType": "bool",
              "name": "allowDelete",
              "type": "bool"
            },
            {
              "internalType": "string",
              "name": "whereClause",
              "type": "string"
            },
            {
              "internalType": "string",
              "name": "withCheck",
              "type": "string"
            },
            {
              "internalType": "string[]",
              "name": "updatableColumns",
              "type": "string[]"
            }
          ],
          "indexed": false,
          "internalType": "struct TablelandPolicy",
          "name": "policy",
          "type": "tuple"
        }
      ],
      "name": "RunSQL",
      "type": "event"
    },
    {
      "anonymous": false,
      "inputs": [
        {
          "indexed": false,
          "internalType": "uint256",
          "name": "tableId",
          "type": "uint256"
        },
        {
          "indexed": false,
          "internalType": "address",
          "name": "controller",
          "type": "address"
        }
      ],
      "name": "SetController",
      "type": "event"
    },
    {
      "anonymous": false,
      "inputs": [
        {
          "indexed": true,
          "internalType": "address",
          "name": "from",
          "type": "address"
        },
        {
          "indexed": true,
          "internalType": "address",
          "name": "to",
          "type": "address"
        },
        {
          "indexed": true,
          "internalType": "uint256",
          "name": "tokenId",
          "type": "uint256"
        }
      ],
      "name": "Transfer",
      "type": "event"
    },
    {
      "anonymous": false,
      "inputs": [
        {
          "indexed": false,
          "internalType": "address",
          "name": "from",
          "type": "address"
        },
        {
          "indexed": false,
          "internalType": "address",
          "name": "to",
          "type": "address"
        },
        {
          "indexed": false,
          "internalType": "uint256",
          "name": "tableId",
          "type": "uint256"
        }
      ],
      "name": "TransferTable",
      "type": "event"
    },
    {
      "anonymous": false,
      "inputs": [
        {
          "indexed": false,
          "internalType": "address",
          "name": "account",
          "type": "address"
        }
      ],
      "name": "Unpaused",
      "type": "event"
    },
    {
      "anonymous": false,
      "inputs": [
        {
          "indexed": true,
          "internalType": "address",
          "name": "implementation",
          "type": "address"
        }
      ],
      "name": "Upgraded",
      "type": "event"
    },
    {
      "inputs": [
        {
          "internalType": "address",
          "name": "to",
          "type": "address"
        },
        {
          "internalType": "uint256",
          "name": "tokenId",
          "type": "uint256"
        }
      ],
      "name": "approve",
      "outputs": [],
      "stateMutability": "payable",
      "type": "function"
    },
    {
      "inputs": [
        {
          "internalType": "address",
          "name": "owner",
          "type": "address"
        }
      ],
      "name": "balanceOf",
      "outputs": [
        {
          "internalType": "uint256",
          "name": "",
          "type": "uint256"
        }
      ],
      "stateMutability": "view",
      "type": "function"
    },
    {
      "inputs": [
        {
          "internalType": "address",
          "name": "owner",
          "type": "address"
        },
        {
          "internalType": "string[]",
          "name": "statements",
          "type": "string[]"
        }
      ],
      "name": "create",
      "outputs": [
        {
          "internalType": "uint256[]",
          "name": "",
          "type": "uint256[]"
        }
      ],
      "stateMutability": "payable",
      "type": "function"
    },
    {
      "inputs": [
        {
          "internalType": "address",
          "name": "owner",
          "type": "address"
        },
        {
          "internalType": "string",
          "name": "statement",
          "type": "string"
        }
      ],
      "name": "create",
      "outputs": [
        {
          "internalType": "uint256",
          "name": "",
          "type": "uint256"
        }
      ],
      "stateMutability": "payable",
      "type": "function"
    },
    {
      "inputs": [
        {
          "internalType": "address",
          "name": "owner",
          "type": "address"
        },
        {
          "internalType": "string",
          "name": "statement",
          "type": "string"
        }
      ],
      "name": "createTable",
      "outputs": [
        {
          "internalType": "uint256",
          "name": "",
          "type": "uint256"
        }
      ],
      "stateMutability": "payable",
      "type": "function"
    },
    {
      "inputs": [
        {
          "internalType": "uint256",
          "name": "tokenId",
          "type": "uint256"
        }
      ],
      "name": "explicitOwnershipOf",
      "outputs": [
        {
          "components": [
            {
              "internalType": "address",
              "name": "addr",
              "type": "address"
            },
            {
              "internalType": "uint64",
              "name": "startTimestamp",
              "type": "uint64"
            },
            {
              "internalType": "bool",
              "name": "burned",
              "type": "bool"
            },
            {
              "internalType": "uint24",
              "name": "extraData",
              "type": "uint24"
            }
          ],
          "internalType": "struct IERC721AUpgradeable.TokenOwnership",
          "name": "ownership",
          "type": "tuple"
        }
      ],
      "stateMutability": "view",
      "type": "function"
    },
    {
      "inputs": [
        {
          "internalType": "uint256[]",
          "name": "tokenIds",
          "type": "uint256[]"
        }
      ],
      "name": "explicitOwnershipsOf",
      "outputs": [
        {
          "components": [
            {
              "internalType": "address",
              "name": "addr",
              "type": "address"
            },
            {
              "internalType": "uint64",
              "name": "startTimestamp",
              "type": "uint64"
            },
            {
              "internalType": "bool",
              "name": "burned",
              "type": "bool"
            },
            {
              "internalType": "uint24",
              "name": "extraData",
              "type": "uint24"
            }
          ],
          "internalType": "struct IERC721AUpgradeable.TokenOwnership[]",
          "name": "",
          "type": "tuple[]"
        }
      ],
      "stateMutability": "view",
      "type": "function"
    },
    {
      "inputs": [
        {
          "internalType": "uint256",
          "name": "tokenId",
          "type": "uint256"
        }
      ],
      "name": "getApproved",
      "outputs": [
        {
          "internalType": "address",
          "name": "",
          "type": "address"
        }
      ],
      "stateMutability": "view",
      "type": "function"
    },
    {
      "inputs": [
        {
          "internalType": "uint256",
          "name": "tableId",
          "type": "uint256"
        }
      ],
      "name": "getController",
      "outputs": [
        {
          "internalType": "address",
          "name": "",
          "type": "address"
        }
      ],
      "stateMutability": "view",
      "type": "function"
    },
    {
      "inputs": [
        {
          "internalType": "string",
          "name": "baseURI",
          "type": "string"
        }
      ],
      "name": "initialize",
      "outputs": [],
      "stateMutability": "nonpayable",
      "type": "function"
    },
    {
      "inputs": [
        {
          "internalType": "address",
          "name": "owner",
          "type": "address"
        },
        {
          "internalType": "address",
          "name": "operator",
          "type": "address"
        }
      ],
      "name": "isApprovedForAll",
      "outputs": [
        {
          "internalType": "bool",
          "name": "",
          "type": "bool"
        }
      ],
      "stateMutability": "view",
      "type": "function"
    },
    {
      "inputs": [
        {
          "internalType": "address",
          "name": "caller",
          "type": "address"
        },
        {
          "internalType": "uint256",
          "name": "tableId",
          "type": "uint256"
        }
      ],
      "name": "lockController",
      "outputs": [],
      "stateMutability": "nonpayable",
      "type": "function"
    },
    {
      "inputs": [
        {
          "internalType": "address",
          "name": "caller",
          "type": "address"
        },
        {
          "internalType": "uint256",
          "name": "tableId",
          "type": "uint256"
        },
        {
          "internalType": "string",
          "name": "statement",
          "type": "string"
        }
      ],
      "name": "mutate",
      "outputs": [],
      "stateMutability": "payable",
      "type": "function"
    },
    {
      "inputs": [
        {
          "internalType": "address",
          "name": "caller",
          "type": "address"
        },
        {
          "components": [
            {
              "internalType": "uint256",
              "name": "tableId",
              "type": "uint256"
            },
            {
              "internalType": "string",
              "name": "statement",
              "type": "string"
            }
          ],
          "internalType": "struct ITablelandTables.Statement[]",
          "name": "statements",
          "type": "tuple[]"
        }
      ],
      "name": "mutate",
      "outputs": [],
      "stateMutability": "payable",
      "type": "function"
    },
    {
      "inputs": [],
      "name": "name",
      "outputs": [
        {
          "internalType": "string",
          "name": "",
          "type": "string"
        }
      ],
      "stateMutability": "view",
      "type": "function"
    },
    {
      "inputs": [],
      "name": "owner",
      "outputs": [
        {
          "internalType": "address",
          "name": "",
          "type": "address"
        }
      ],
      "stateMutability": "view",
      "type": "function"
    },
    {
      "inputs": [
        {
          "internalType": "uint256",
          "name": "tokenId",
          "type": "uint256"
        }
      ],
      "name": "ownerOf",
      "outputs": [
        {
          "internalType": "address",
          "name": "",
          "type": "address"
        }
      ],
      "stateMutability": "view",
      "type": "function"
    },
    {
      "inputs": [],
      "name": "pause",
      "outputs": [],
      "stateMutability": "nonpayable",
      "type": "function"
    },
    {
      "inputs": [],
      "name": "paused",
      "outputs": [
        {
          "internalType": "bool",
          "name": "",
          "type": "bool"
        }
      ],
      "stateMutability": "view",
      "type": "function"
    },
    {
      "inputs": [],
      "name": "proxiableUUID",
      "outputs": [
        {
          "internalType": "bytes32",
          "name": "",
          "type": "bytes32"
        }
      ],
      "stateMutability": "view",
      "type": "function"
    },
    {
      "inputs": [],
      "name": "renounceOwnership",
      "outputs": [],
      "stateMutability": "nonpayable",
      "type": "function"
    },
    {
      "inputs": [
        {
          "internalType": "address",
          "name": "caller",
          "type": "address"
        },
        {
          "internalType": "uint256",
          "name": "tableId",
          "type": "uint256"
        },
        {
          "internalType": "string",
          "name": "statement",
          "type": "string"
        }
      ],
      "name": "runSQL",
      "outputs": [],
      "stateMutability": "payable",
      "type": "function"
    },
    {
      "inputs": [
        {
          "internalType": "address",
          "name": "from",
          "type": "address"
        },
        {
          "internalType": "address",
          "name": "to",
          "type": "address"
        },
        {
          "internalType": "uint256",
          "name": "tokenId",
          "type": "uint256"
        }
      ],
      "name": "safeTransferFrom",
      "outputs": [],
      "stateMutability": "payable",
      "type": "function"
    },
    {
      "inputs": [
        {
          "internalType": "address",
          "name": "from",
          "type": "address"
        },
        {
          "internalType": "address",
          "name": "to",
          "type": "address"
        },
        {
          "internalType": "uint256",
          "name": "tokenId",
          "type": "uint256"
        },
        {
          "internalType": "bytes",
          "name": "_data",
          "type": "bytes"
        }
      ],
      "name": "safeTransferFrom",
      "outputs": [],
      "stateMutability": "payable",
      "type": "function"
    },
    {
      "inputs": [
        {
          "internalType": "address",
          "name": "operator",
          "type": "address"
        },
        {
          "internalType": "bool",
          "name": "approved",
          "type": "bool"
        }
      ],
      "name": "setApprovalForAll",
      "outputs": [],
      "stateMutability": "nonpayable",
      "type": "function"
    },
    {
      "inputs": [
        {
          "internalType": "string",
          "name": "baseURI",
          "type": "string"
        }
      ],
      "name": "setBaseURI",
      "outputs": [],
      "stateMutability": "nonpayable",
      "type": "function"
    },
    {
      "inputs": [
        {
          "internalType": "address",
          "name": "caller",
          "type": "address"
        },
        {
          "internalType": "uint256",
          "name": "tableId",
          "type": "uint256"
        },
        {
          "internalType": "address",
          "name": "controller",
          "type": "address"
        }
      ],
      "name": "setController",
      "outputs": [],
      "stateMutability": "nonpayable",
      "type": "function"
    },
    {
      "inputs": [
        {
          "internalType": "bytes4",
          "name": "interfaceId",
          "type": "bytes4"
        }
      ],
      "name": "supportsInterface",
      "outputs": [
        {
          "internalType": "bool",
          "name": "",
          "type": "bool"
        }
      ],
      "stateMutability": "view",
      "type": "function"
    },
    {
      "inputs": [],
      "name": "symbol",
      "outputs": [
        {
          "internalType": "string",
          "name": "",
          "type": "string"
        }
      ],
      "stateMutability": "view",
      "type": "function"
    },
    {
      "inputs": [
        {
          "internalType": "uint256",
          "name": "tokenId",
          "type": "uint256"
        }
      ],
      "name": "tokenURI",
      "outputs": [
        {
          "internalType": "string",
          "name": "",
          "type": "string"
        }
      ],
      "stateMutability": "view",
      "type": "function"
    },
    {
      "inputs": [
        {
          "internalType": "address",
          "name": "owner",
          "type": "address"
        }
      ],
      "name": "tokensOfOwner",
      "outputs": [
        {
          "internalType": "uint256[]",
          "name": "",
          "type": "uint256[]"
        }
      ],
      "stateMutability": "view",
      "type": "function"
    },
    {
      "inputs": [
        {
          "internalType": "address",
          "name": "owner",
          "type": "address"
        },
        {
          "internalType": "uint256",
          "name": "start",
          "type": "uint256"
        },
        {
          "internalType": "uint256",
          "name": "stop",
          "type": "uint256"
        }
      ],
      "name": "tokensOfOwnerIn",
      "outputs": [
        {
          "internalType": "uint256[]",
          "name": "",
          "type": "uint256[]"
        }
      ],
      "stateMutability": "view",
      "type": "function"
    },
    {
      "inputs": [],
      "name": "totalSupply",
      "outputs": [
        {
          "internalType": "uint256",
          "name": "result",
          "type": "uint256"
        }
      ],
      "stateMutability": "view",
      "type": "function"
    },
    {
      "inputs": [
        {
          "internalType": "address",
          "name": "from",
          "type": "address"
        },
        {
          "internalType": "address",
          "name": "to",
          "type": "address"
        },
        {
          "internalType": "uint256",
          "name": "tokenId",
          "type": "uint256"
        }
      ],
      "name": "transferFrom",
      "outputs": [],
      "stateMutability": "payable",
      "type": "function"
    },
    {
      "inputs": [
        {
          "internalType": "address",
          "name": "newOwner",
          "type": "address"
        }
      ],
      "name": "transferOwnership",
      "outputs": [],
      "stateMutability": "nonpayable",
      "type": "function"
    },
    {
      "inputs": [],
      "name": "unpause",
      "outputs": [],
      "stateMutability": "nonpayable",
      "type": "function"
    },
    {
      "inputs": [
        {
          "internalType": "address",
          "name": "newImplementation",
          "type": "address"
        }
      ],
      "name": "upgradeTo",
      "outputs": [],
      "stateMutability": "nonpayable",
      "type": "function"
    },
    {
      "inputs": [
        {
          "internalType": "address",
          "name": "newImplementation",
          "type": "address"
        },
        {
          "internalType": "bytes",
          "name": "data",
          "type": "bytes"
        }
      ],
      "name": "upgradeToAndCall",
      "outputs": [],
      "stateMutability": "payable",
      "type": "function"
    }
  ],
  "bytecode": "0x60a0604052306080523480156200001557600080fd5b506200002062000026565b620000e7565b600054610100900460ff1615620000935760405162461bcd60e51b815260206004820152602760248201527f496e697469616c697a61626c653a20636f6e747261637420697320696e697469604482015266616c697a696e6760c81b606482015260840160405180910390fd5b60005460ff90811614620000e5576000805460ff191660ff9081179091556040519081527f7f26b83ff96e1f2b6a682f133852f6798a09c465da95921460cefb38474024989060200160405180910390a15b565b6080516137356200011f60003960008181610a3201528181610a7b01528181610b9501528181610bd50152610c6401526137356000f3fe6080604052600436106102255760003560e01c80636352211e11610123578063a15ab08d116100ab578063c87b56dd1161006f578063c87b56dd146105e6578063e985e9c514610606578063eaf5d04e14610344578063f2fde38b14610626578063f62d18881461064657600080fd5b8063a15ab08d14610357578063a22cb46514610573578063abf69aa314610593578063b88d4fde146105a6578063c23dc68f146105b957600080fd5b80638462151c116100f25780638462151c146104e05780638bb0ab97146105005780638da5cb5b1461052057806395d89b411461053e57806399a2557a1461055357600080fd5b80636352211e1461047657806370a0823114610496578063715018a6146104b65780638456cb59146104cb57600080fd5b80633a9151b0116101b157806355f804b31161017557806355f804b3146103ba57806358edaa9c146103da5780635bbb2177146104115780635c975abb1461043e57806361a23d0f1461045657600080fd5b80633a9151b0146103575780633f4ba83a1461036a57806342842e0e1461037f5780634f1ef2861461039257806352d1902d146103a557600080fd5b8063095ea7b3116101f8578063095ea7b3146102db57806318160ddd146102ee57806323b872dd146103115780633659cfe614610324578063377af0da1461034457600080fd5b806301ffc9a71461022a578063052956811461025f57806306fdde0314610281578063081812fc146102a3575b600080fd5b34801561023657600080fd5b5061024a61024536600461286e565b610666565b60405190151581526020015b60405180910390f35b34801561026b57600080fd5b5061027f61027a3660046128a2565b6106b8565b005b34801561028d57600080fd5b50610296610746565b604051610256919061291c565b3480156102af57600080fd5b506102c36102be36600461292f565b6107e1565b6040516001600160a01b039091168152602001610256565b61027f6102e93660046128a2565b610825565b3480156102fa57600080fd5b50610303610835565b604051908152602001610256565b61027f61031f366004612948565b610858565b34801561033057600080fd5b5061027f61033f366004612984565b610a28565b61027f6103523660046129e7565b610b10565b610303610365366004612a40565b610b3c565b34801561037657600080fd5b5061027f610b59565b61027f61038d366004612948565b610b6b565b61027f6103a0366004612b89565b610b8b565b3480156103b157600080fd5b50610303610c57565b3480156103c657600080fd5b5061027f6103d5366004612bd6565b610d0a565b3480156103e657600080fd5b506102c36103f536600461292f565b600090815261012e60205260409020546001600160a01b031690565b34801561041d57600080fd5b5061043161042c366004612c62565b610d1f565b6040516102569190612cdf565b34801561044a57600080fd5b5060655460ff1661024a565b610469610464366004612d2d565b610d6b565b6040516102569190612d72565b34801561048257600080fd5b506102c361049136600461292f565b610e44565b3480156104a257600080fd5b506103036104b1366004612984565b610e4f565b3480156104c257600080fd5b5061027f610eae565b3480156104d757600080fd5b5061027f610ec0565b3480156104ec57600080fd5b506104696104fb366004612984565b610ed0565b34801561050c57600080fd5b5061027f61051b366004612daa565b610efd565b34801561052c57600080fd5b506033546001600160a01b03166102c3565b34801561054a57600080fd5b50610296610fd6565b34801561055f57600080fd5b5061046961056e366004612de6565b610fee565b34801561057f57600080fd5b5061027f61058e366004612e27565b610ffb565b61027f6105a1366004612d2d565b611078565b61027f6105b4366004612e5e565b611108565b3480156105c557600080fd5b506105d96105d436600461292f565b611143565b6040516102569190612ec5565b3480156105f257600080fd5b5061029661060136600461292f565b6111a6565b34801561061257600080fd5b5061024a610621366004612ed3565b611221565b34801561063257600080fd5b5061027f610641366004612984565b61125e565b34801561065257600080fd5b5061027f610661366004612bd6565b6112d4565b60006301ffc9a760e01b6001600160e01b03198316148061069757506380ac58cd60e01b6001600160e01b03198316145b806106b25750635b5e139f60e01b6001600160e01b03198316145b92915050565b6106c0611569565b6106c981610e44565b6001600160a01b0316826001600160a01b03161415806106f257506001600160a01b0382163314155b8061070c5750600081815261012f602052604090205460ff165b15610729576040516282b42960e81b815260040160405180910390fd5b600090815261012f60205260409020805460ff1916600117905550565b60606107506115af565b600201805461075e90612f06565b80601f016020809104026020016040519081016040528092919081815260200182805461078a90612f06565b80156107d75780601f106107ac576101008083540402835291602001916107d7565b820191906000526020600020905b8154815290600101906020018083116107ba57829003601f168201915b5050505050905090565b60006107ec826115d3565b610800576108006333d1c03960e21b611631565b6108086115af565b60009283526006016020525060409020546001600160a01b031690565b6108318282600161163b565b5050565b600060016108416115af565b6001015461084d6115af565b540303905090565b90565b6000610863826116ec565b6001600160a01b0394851694909150811684146108895761088962a1148160e81b611631565b600080610895846117af565b915091506108ba81876108a53390565b6001600160a01b039081169116811491141790565b6108dc576108c88633611221565b6108dc576108dc632ce44b5f60e11b611631565b80156108e757600082555b6108ef6115af565b6001600160a01b038716600090815260059190910160205260409020805460001901905561091b6115af565b6001600160a01b03861660008181526005929092016020526040909120805460010190554260a01b17600160e11b176109526115af565b60008681526004919091016020526040812091909155600160e11b841690036109c857600184016109816115af565b6000828152600491909101602052604081205490036109c6576109a26115af565b5481146109c657836109b26115af565b600083815260049190910160205260409020555b505b6001600160a01b0385168481887fddf252ad1be2c89b69c2b068fc378daa952ba7f163c4a11628f55a4df523b3ef600080a480600003610a1257610a12633a954ecd60e21b611631565b610a1f87878760016117d7565b50505050505050565b6001600160a01b037f0000000000000000000000000000000000000000000000000000000000000000163003610a795760405162461bcd60e51b8152600401610a7090612f40565b60405180910390fd5b7f00000000000000000000000000000000000000000000000000000000000000006001600160a01b0316610ac2600080516020613699833981519152546001600160a01b031690565b6001600160a01b031614610ae85760405162461bcd60e51b8152600401610a7090612f8c565b610af181611837565b60408051600080825260208201909252610b0d9183919061183f565b50565b610b18611569565b610b206119aa565b610b2c84848484611a03565b610b366001609755565b50505050565b6000610b46611569565b610b51848484611ae0565b949350505050565b610b61611b3b565b610b69611b95565b565b610b8683838360405180602001604052806000815250611108565b505050565b6001600160a01b037f0000000000000000000000000000000000000000000000000000000000000000163003610bd35760405162461bcd60e51b8152600401610a7090612f40565b7f00000000000000000000000000000000000000000000000000000000000000006001600160a01b0316610c1c600080516020613699833981519152546001600160a01b031690565b6001600160a01b031614610c425760405162461bcd60e51b8152600401610a7090612f8c565b610c4b82611837565b6108318282600161183f565b6000306001600160a01b037f00000000000000000000000000000000000000000000000000000000000000001614610cf75760405162461bcd60e51b815260206004820152603860248201527f555550535570677261646561626c653a206d757374206e6f742062652063616c60448201527f6c6564207468726f7567682064656c656761746563616c6c00000000000000006064820152608401610a70565b5060008051602061369983398151915290565b610d12611b3b565b61012d6108318282613026565b60408051828152600583901b8082016020019092526060915b8015610d6357601f1980820191860101356000610d5482611143565b8484016020015250610d389050565b509392505050565b6060610d75611569565b816001811015610d97576040516282b42960e81b815260040160405180910390fd5b6000816001600160401b03811115610db157610db1612a92565b604051908082528060200260200182016040528015610dda578160200160208202803683370190505b50905060005b82811015610e3a57610e1587878784818110610dfe57610dfe6130e5565b9050602002810190610e1091906130fb565b611ae0565b828281518110610e2757610e276130e5565b6020908102919091010152600101610de0565b5095945050505050565b60006106b2826116ec565b60006001600160a01b038216610e6f57610e6f6323d3ad8160e21b611631565b6001600160401b03610e7f6115af565b6005016000846001600160a01b03166001600160a01b0316815260200190815260200160002054169050919050565b610eb6611b3b565b610b696000611be7565b610ec8611b3b565b610b69611c39565b606060016000610ede611c76565b90506060818314610b5157610ef4858484611c86565b95945050505050565b610f05611569565b610f0e82610e44565b6001600160a01b0316836001600160a01b0316141580610f3757506001600160a01b0383163314155b80610f515750600082815261012f602052604090205460ff165b15610f6e576040516282b42960e81b815260040160405180910390fd5b600082815261012e602090815260409182902080546001600160a01b0319166001600160a01b0385169081179091558251858152918201527f64d442926514e7c17643406b529155919979582e13eee1dfe07cbd088ef2033e910160405180910390a1505050565b6060610fe06115af565b600301805461075e90612f06565b6060610b51848484611c86565b806110046115af565b336000818152600792909201602090815260408084206001600160a01b03881680865290835293819020805460ff19169515159590951790945592518415158152919290917f17307eab39ab6107e8899845ad3d59bd9653f200f220920489ca2b5937696c31910160405180910390a35050565b611080611569565b6110886119aa565b8060005b818110156110fc576110f4858585848181106110aa576110aa6130e5565b90506020028101906110bc9190613141565b358686858181106110cf576110cf6130e5565b90506020028101906110e19190613141565b6110ef9060208101906130fb565b611a03565b60010161108c565b5050610b866001609755565b611113848484610858565b6001600160a01b0383163b15610b365761112f84848484611d96565b610b3657610b366368d2bf6b60e11b611631565b604080516080810182526000808252602082018190529181018290526060810191909152600182106111a157611177611c76565b8210156111a1575b61118882611f01565b611198576000199091019061117f565b6106b282611e78565b919050565b60606111b1826115d3565b6111c5576111c5630a14c4b560e41b611631565b60006111cf611f21565b905080516000036111ef576040518060200160405280600081525061121a565b806111f984611f31565b60405160200161120a929190613161565b6040516020818303038152906040525b9392505050565b600061122b6115af565b6001600160a01b039384166000908152600791909101602090815260408083209490951682529290925250205460ff1690565b611266611b3b565b6001600160a01b0381166112cb5760405162461bcd60e51b815260206004820152602660248201527f4f776e61626c653a206e6577206f776e657220697320746865207a65726f206160448201526564647265737360d01b6064820152608401610a70565b610b0d81611be7565b6000805160206136e083398151915254610100900460ff16611309576000805160206136e08339815191525460ff161561130d565b303b155b61137f5760405162461bcd60e51b815260206004820152603760248201527f455243373231415f5f496e697469616c697a61626c653a20636f6e747261637460448201527f20697320616c726561647920696e697469616c697a65640000000000000000006064820152608401610a70565b6000805160206136e083398151915254610100900460ff161580156113bb576000805160206136e0833981519152805461ffff19166101011790555b600054610100900460ff16158080156113db5750600054600160ff909116105b806113f55750303b1580156113f5575060005460ff166001145b6114585760405162461bcd60e51b815260206004820152602e60248201527f496e697469616c697a61626c653a20636f6e747261637420697320616c72656160448201526d191e481a5b9a5d1a585b1a5e995960921b6064820152608401610a70565b6000805460ff19166001179055801561147b576000805461ff0019166101001790555b6114ca6040518060400160405280601081526020016f5461626c656c616e64205461626c657360801b815250604051806040016040528060058152602001645441424c4560d81b815250611f75565b6114d2611fb3565b6114da611fef565b6114e261201e565b6114ea61204d565b6114f261207c565b61012d6114ff8482613026565b508015611546576000805461ff0019169055604051600181527f7f26b83ff96e1f2b6a682f133852f6798a09c465da95921460cefb38474024989060200160405180910390a15b5080156108315750506000805160206136e0833981519152805461ff0019169055565b60655460ff1615610b695760405162461bcd60e51b815260206004820152601060248201526f14185d5cd8589b194e881c185d5cd95960821b6044820152606401610a70565b7f2569078dfb4b0305704d3008e7403993ae9601b85f7ae5e742de3de8f8011c4090565b6000816001116111a1576115e56115af565b548210156111a15760005b6115f86115af565b6000848152600491909101602052604081205491508190036116245761161d83613190565b92506115f0565b600160e01b161592915050565b8060005260046000fd5b600061164683610e44565b905081801561165e5750336001600160a01b03821614155b156116815761166d8133611221565b611681576116816367d9dca160e11b611631565b8361168a6115af565b6000858152600691909101602052604080822080546001600160a01b0319166001600160a01b0394851617905551859287811692908516917f8c5be1e5ebec7d5bd14f71427d1e84f3dd0314c0f7b2291e5b200ac8c7c3b9259190a450505050565b60008160011161179f576116fe6115af565b6000838152600491909101602052604090205490508060000361178c576117236115af565b54821061173a5761173a636f96cda160e11b611631565b6117426115af565b60001990920160008181526004939093016020526040909220549050801561173a57600160e01b811660000361177757919050565b611787636f96cda160e11b611631565b61173a565b600160e01b811660000361179f57919050565b6111a1636f96cda160e11b611631565b60008060006117bc6115af565b60009485526006016020525050604090912080549092909150565b6001600160a01b03841615610b3657604080516001600160a01b038087168252851660208201529081018390527f16d5b5d582da969cea3131e89ffbd67ee6b1ebbe2576c7a97e9b852fce946a7f9060600160405180910390a150505050565b610b0d611b3b565b7f4910fdfa16fed3260ed0e7147f7cc6da11a60208b5b9406d12a635614ffd91435460ff161561187257610b86836120a3565b826001600160a01b03166352d1902d6040518163ffffffff1660e01b8152600401602060405180830381865afa9250505080156118cc575060408051601f3d908101601f191682019092526118c9918101906131b5565b60015b61192f5760405162461bcd60e51b815260206004820152602e60248201527f45524331393637557067726164653a206e657720696d706c656d656e7461746960448201526d6f6e206973206e6f74205555505360901b6064820152608401610a70565b600080516020613699833981519152811461199e5760405162461bcd60e51b815260206004820152602960248201527f45524331393637557067726164653a20756e737570706f727465642070726f786044820152681a58589b195555525160ba1b6064820152608401610a70565b50610b8683838361213f565b6002609754036119fc5760405162461bcd60e51b815260206004820152601f60248201527f5265656e7472616e637947756172643a207265656e7472616e742063616c6c006044820152606401610a70565b6002609755565b611a0c836115d3565b1580611a2157506001600160a01b0384163314155b15611a3e576040516282b42960e81b815260040160405180910390fd5b806188b98110611a6c5760405163287d905760e01b8152600481018290526188b96024820152604401610a70565b7f6de956d2cb2e161f8c91c6ae7b286358c7458d5ad5e26ea2d55330fbe282839c85866001600160a01b0316611aa187610e44565b6001600160a01b031614868686611ab88b8b612164565b604051611aca969594939291906131f7565b60405180910390a15050505050565b6001609755565b6000611aea611c76565b9050611af78460016123f2565b7ffe0c067afc4fe17adcf4cfa139aabad6dc30dd86dfe39fb2b858961637156cdd84828585604051611b2c94939291906132eb565b60405180910390a19392505050565b6033546001600160a01b03163314610b695760405162461bcd60e51b815260206004820181905260248201527f4f776e61626c653a2063616c6c6572206973206e6f7420746865206f776e65726044820152606401610a70565b611b9d61240c565b6065805460ff191690557f5db9ee0a495bf2e6ff9c91a7834c1ba4fdd244a5e8aa4e537bd38aeae4b073aa335b6040516001600160a01b03909116815260200160405180910390a1565b603380546001600160a01b038381166001600160a01b0319831681179093556040519116919082907f8be0079c531659141344cd1fd0a4f28419497f9722a3daafe3b4186f6b6457e090600090a35050565b611c41611569565b6065805460ff191660011790557f62e78cea01bee320cd4e420270b5ea74000d11b0c9f74754ebdbfc544b05a258611bca3390565b6000611c806115af565b54919050565b6060818310611c9f57611c9f631960ccad60e11b611631565b6001831015611cad57600192505b6000611cb7611c76565b905080808410611cc5578093505b6000611cd087610e4f565b9050848610611cdd575060005b8015611d8c578086860311611cf157508484035b604080516001830160051b81019182905294506000611d0f88611143565b905060008160400151611d20575080515b60005b611d2c8a611e78565b9250604083015160008114611d445760009250611d69565b835115611d5057835192505b8b831860601b611d69576001820191508a8260051b8a01525b5060018a01995083604052888a1480611d8157508481145b15611d235787525050505b5050509392505050565b604051630a85bd0160e11b81526000906001600160a01b0385169063150b7a0290611dcb903390899088908890600401613313565b6020604051808303816000875af1925050508015611e06575060408051601f3d908101601f19168201909252611e0391810190613346565b60015b611e5b573d808015611e34576040519150601f19603f3d011682016040523d82523d6000602084013e611e39565b606091505b508051600003611e5357611e536368d2bf6b60e11b611631565b805181602001fd5b6001600160e01b031916630a85bd0160e11b149050949350505050565b6040805160808101825260008082526020820181905291810182905260608101919091526106b2611ea76115af565b60008481526004919091016020526040902054604080516080810182526001600160a01b038316815260a083901c6001600160401b03166020820152600160e01b831615159181019190915260e89190911c606082015290565b6000611f0b6115af565b6000928352600401602052506040902054151590565b606061012d805461075e90612f06565b606060a06040510180604052602081039150506000815280825b600183039250600a81066030018353600a900480611f4b5750819003601f19909101908152919050565b6000805160206136e083398151915254610100900460ff16611fa95760405162461bcd60e51b8152600401610a7090613363565b6108318282612455565b6000805160206136e083398151915254610100900460ff16611fe75760405162461bcd60e51b8152600401610a7090613363565b610b696124c8565b600054610100900460ff166120165760405162461bcd60e51b8152600401610a70906133b7565b610b696124fc565b600054610100900460ff166120455760405162461bcd60e51b8152600401610a70906133b7565b610b6961252c565b600054610100900460ff166120745760405162461bcd60e51b8152600401610a70906133b7565b610b6961255f565b600054610100900460ff16610b695760405162461bcd60e51b8152600401610a70906133b7565b6001600160a01b0381163b6121105760405162461bcd60e51b815260206004820152602d60248201527f455243313936373a206e657720696d706c656d656e746174696f6e206973206e60448201526c1bdd08184818dbdb9d1c9858dd609a1b6064820152608401610a70565b60008051602061369983398151915280546001600160a01b0319166001600160a01b0392909216919091179055565b61214883612586565b6000825111806121555750805b15610b8657610b3683836125c6565b6040805160c0810182526000808252602082018190529181019190915260608082018190526080820181905260a0820152600082815261012e60205260409020546001600160a01b0316803b156123365760405163336f991760e11b81526001600160a01b038581166004830152602482018590528216906366df322e90349060440160006040518083038185885af19350505050801561222757506040513d6000823e601f3d908101601f1916820160405261222491908101906134fb565b60015b6122b3576122336135e2565b806308c379a00361226c57506122476135fd565b80612252575061226e565b8060405162461bcd60e51b8152600401610a70919061291c565b505b3d808015612298576040519150601f19603f3d011682016040523d82523d6000602084013e61229d565b606091505b508051156122ad57805181602001fd5b506122bc565b91506106b29050565b604051631bc8ee3560e11b81526001600160a01b038581166004830152821690633791dc6a90349060240160006040518083038185885af1158015612305573d6000803e3d6000fd5b50505050506040513d6000823e601f3d908101601f1916820160405261232e91908101906134fb565b9150506106b2565b6001600160a01b038116158061235d5750836001600160a01b0316816001600160a01b0316145b612379576040516282b42960e81b815260040160405180910390fd5b6040805160c081018252600180825260208083018290528284019190915282518082018452600080825260608401919091528351808301855281815260808401528351818152918201909352909160a0830191906123e7565b60608152602001906001900390816123d25790505b509052949350505050565b6108318282604051806020016040528060008152506125eb565b60655460ff16610b695760405162461bcd60e51b815260206004820152601460248201527314185d5cd8589b194e881b9bdd081c185d5cd95960621b6044820152606401610a70565b6000805160206136e083398151915254610100900460ff166124895760405162461bcd60e51b8152600401610a7090613363565b816124926115af565b600201906124a09082613026565b50806124aa6115af565b600301906124b89082613026565b5060016124c36115af565b555050565b6000805160206136e083398151915254610100900460ff16610b695760405162461bcd60e51b8152600401610a7090613363565b600054610100900460ff166125235760405162461bcd60e51b8152600401610a70906133b7565b610b6933611be7565b600054610100900460ff166125535760405162461bcd60e51b8152600401610a70906133b7565b6065805460ff19169055565b600054610100900460ff16611ad95760405162461bcd60e51b8152600401610a70906133b7565b61258f816120a3565b6040516001600160a01b038216907fbc7cd75a20ee27fd9adebab32041f755214dbc6bffa90cc0225b39da2e5c2d3b90600090a250565b606061121a83836040518060600160405280602781526020016136b96027913961265f565b6125f583836126d7565b6001600160a01b0383163b15610b8657600061260f6115af565b5490508281035b6126296000868380600101945086611d96565b61263d5761263d6368d2bf6b60e11b611631565b818110612616578161264d6115af565b541461265857600080fd5b5050505050565b6060600080856001600160a01b03168560405161267c9190613686565b600060405180830381855af49150503d80600081146126b7576040519150601f19603f3d011682016040523d82523d6000602084013e6126bc565b606091505b50915091506126cd868383876127d4565b9695505050505050565b60006126e16115af565b54905060008290036126fd576126fd63b562e8dd60e01b611631565b6001600160a01b0383164260a01b6001841460e11b171761271c6115af565b600083815260049190910160205260409020556801000000000000000182026127436115af565b6001600160a01b038516600081815260059290920160205260408220805490930190925581900361277d5761277d622e076360e81b611631565b818301825b808360007fddf252ad1be2c89b69c2b068fc378daa952ba7f163c4a11628f55a4df523b3ef600080a481816001019150810361278257816127c16115af565b5550610b869150600090508483856117d7565b6060831561284357825160000361283c576001600160a01b0385163b61283c5760405162461bcd60e51b815260206004820152601d60248201527f416464726573733a2063616c6c20746f206e6f6e2d636f6e74726163740000006044820152606401610a70565b5081610b51565b610b5183838151156122525781518083602001fd5b6001600160e01b031981168114610b0d57600080fd5b60006020828403121561288057600080fd5b813561121a81612858565b80356001600160a01b03811681146111a157600080fd5b600080604083850312156128b557600080fd5b6128be8361288b565b946020939093013593505050565b60005b838110156128e75781810151838201526020016128cf565b50506000910152565b600081518084526129088160208601602086016128cc565b601f01601f19169290920160200192915050565b60208152600061121a60208301846128f0565b60006020828403121561294157600080fd5b5035919050565b60008060006060848603121561295d57600080fd5b6129668461288b565b92506129746020850161288b565b9150604084013590509250925092565b60006020828403121561299657600080fd5b61121a8261288b565b60008083601f8401126129b157600080fd5b5081356001600160401b038111156129c857600080fd5b6020830191508360208285010111156129e057600080fd5b9250929050565b600080600080606085870312156129fd57600080fd5b612a068561288b565b93506020850135925060408501356001600160401b03811115612a2857600080fd5b612a348782880161299f565b95989497509550505050565b600080600060408486031215612a5557600080fd5b612a5e8461288b565b925060208401356001600160401b03811115612a7957600080fd5b612a858682870161299f565b9497909650939450505050565b634e487b7160e01b600052604160045260246000fd5b601f8201601f191681016001600160401b0381118282101715612acd57612acd612a92565b6040525050565b60405160c081016001600160401b0381118282101715612af657612af6612a92565b60405290565b60006001600160401b03821115612b1557612b15612a92565b50601f01601f191660200190565b6000612b2e83612afc565b604051612b3b8282612aa8565b809250848152858585011115612b5057600080fd5b8484602083013760006020868301015250509392505050565b600082601f830112612b7a57600080fd5b61121a83833560208501612b23565b60008060408385031215612b9c57600080fd5b612ba58361288b565b915060208301356001600160401b03811115612bc057600080fd5b612bcc85828601612b69565b9150509250929050565b600060208284031215612be857600080fd5b81356001600160401b03811115612bfe57600080fd5b8201601f81018413612c0f57600080fd5b610b5184823560208401612b23565b60008083601f840112612c3057600080fd5b5081356001600160401b03811115612c4757600080fd5b6020830191508360208260051b85010111156129e057600080fd5b60008060208385031215612c7557600080fd5b82356001600160401b03811115612c8b57600080fd5b612c9785828601612c1e565b90969095509350505050565b80516001600160a01b031682526020808201516001600160401b03169083015260408082015115159083015260609081015162ffffff16910152565b6020808252825182820181905260009190848201906040850190845b81811015612d2157612d0e838551612ca3565b9284019260809290920191600101612cfb565b50909695505050505050565b600080600060408486031215612d4257600080fd5b612d4b8461288b565b925060208401356001600160401b03811115612d6657600080fd5b612a8586828701612c1e565b6020808252825182820181905260009190848201906040850190845b81811015612d2157835183529284019291840191600101612d8e565b600080600060608486031215612dbf57600080fd5b612dc88461288b565b925060208401359150612ddd6040850161288b565b90509250925092565b600080600060608486031215612dfb57600080fd5b612e048461288b565b95602085013595506040909401359392505050565b8015158114610b0d57600080fd5b60008060408385031215612e3a57600080fd5b612e438361288b565b91506020830135612e5381612e19565b809150509250929050565b60008060008060808587031215612e7457600080fd5b612e7d8561288b565b9350612e8b6020860161288b565b92506040850135915060608501356001600160401b03811115612ead57600080fd5b612eb987828801612b69565b91505092959194509250565b608081016106b28284612ca3565b60008060408385031215612ee657600080fd5b612eef8361288b565b9150612efd6020840161288b565b90509250929050565b600181811c90821680612f1a57607f821691505b602082108103612f3a57634e487b7160e01b600052602260045260246000fd5b50919050565b6020808252602c908201527f46756e6374696f6e206d7573742062652063616c6c6564207468726f7567682060408201526b19195b1959d85d1958d85b1b60a21b606082015260800190565b6020808252602c908201527f46756e6374696f6e206d7573742062652063616c6c6564207468726f7567682060408201526b6163746976652070726f787960a01b606082015260800190565b601f821115610b8657600081815260208120601f850160051c81016020861015612fff5750805b601f850160051c820191505b8181101561301e5782815560010161300b565b505050505050565b81516001600160401b0381111561303f5761303f612a92565b6130538161304d8454612f06565b84612fd8565b602080601f83116001811461308857600084156130705750858301515b600019600386901b1c1916600185901b17855561301e565b600085815260208120601f198616915b828110156130b757888601518255948401946001909101908401613098565b50858210156130d55787850151600019600388901b60f8161c191681555b5050505050600190811b01905550565b634e487b7160e01b600052603260045260246000fd5b6000808335601e1984360301811261311257600080fd5b8301803591506001600160401b0382111561312c57600080fd5b6020019150368190038213156129e057600080fd5b60008235603e1983360301811261315757600080fd5b9190910192915050565b600083516131738184602088016128cc565b8351908301906131878183602088016128cc565b01949350505050565b6000816131ad57634e487b7160e01b600052601160045260246000fd5b506000190190565b6000602082840312156131c757600080fd5b5051919050565b81835281816020850137506000828201602090810191909152601f909101601f19169091010190565b60018060a01b0387168152600060208715158184015286604084015260a0606084015261322860a0840186886131ce565b838103608085015284511515815281850151151582820152604085015115156040820152606085015160c0606083015261326560c08301826128f0565b90506080860151828203608084015261327e82826128f0565b91505060a086015182820360a084015281925080518083528483019350848160051b840101858301925060005b828110156132d957601f198583030186526132c78285516128f0565b958701959387019391506001016132ab565b509d9c50505050505050505050505050565b60018060a01b03851681528360208201526060604082015260006126cd6060830184866131ce565b6001600160a01b03858116825284166020820152604081018390526080606082018190526000906126cd908301846128f0565b60006020828403121561335857600080fd5b815161121a81612858565b60208082526034908201527f455243373231415f5f496e697469616c697a61626c653a20636f6e7472616374604082015273206973206e6f7420696e697469616c697a696e6760601b606082015260800190565b6020808252602b908201527f496e697469616c697a61626c653a20636f6e7472616374206973206e6f74206960408201526a6e697469616c697a696e6760a81b606082015260800190565b80516111a181612e19565b600082601f83011261341e57600080fd5b815161342981612afc565b6040516134368282612aa8565b82815285602084870101111561344b57600080fd5b610ef48360208301602088016128cc565b600082601f83011261346d57600080fd5b815160206001600160401b038083111561348957613489612a92565b8260051b60405161349c84830182612aa8565b938452858101830193838101888611156134b557600080fd5b84880192505b858310156134ef578251848111156134d35760008081fd5b6134e18a87838c010161340d565b8252509184019184016134bb565b50979650505050505050565b60006020828403121561350d57600080fd5b81516001600160401b038082111561352457600080fd5b9083019060c0828603121561353857600080fd5b613540612ad4565b61354983613402565b815261355760208401613402565b602082015261356860408401613402565b604082015260608301518281111561357f57600080fd5b61358b8782860161340d565b6060830152506080830151828111156135a357600080fd5b6135af8782860161340d565b60808301525060a0830151828111156135c757600080fd5b6135d38782860161345c565b60a08301525095945050505050565b600060033d11156108555760046000803e5060005160e01c90565b600060443d101561360b5790565b6040516003193d81016004833e81513d6001600160401b03816024840111818411171561363a57505050505090565b82850191508151818111156136525750505050505090565b843d870101602082850101111561366c5750505050505090565b61367b60208286010187612aa8565b509095945050505050565b600082516131578184602087016128cc56fe360894a13ba1a3210667c828492db98dca3e2076cc3735a920a3ca505d382bbc416464726573733a206c6f772d6c6576656c2064656c65676174652063616c6c206661696c6564ee151c8401928dc223602bb187aff91b9a56c7cae5476ef1b3287b085a16c85fa264697066735822122043fd90dcb180a03f93d7c35d27e9cf2eede8a0124ec873d40b6ec500e774df8d64736f6c63430008140033",
  "linkReferences": {},
  "deployedLinkReferences": {}
}