{"contracts/FileInfo.sol":{"FileInfo":{"abi":[{"inputs":[],"stateMutability":"nonpayable","type":"constructor"},{"inputs":[{"internalType":"uint256","name":"chainid","type":"uint256"}],"name":"ChainNotSupported","type":"error"},{"anonymous":false,"inputs":[{"indexed":false,"internalType":"uint256","name":"tableId","type":"uint256"},{"indexed":false,"internalType":"string","name":"tableName","type":"string"}],"name":"Delete","type":"event"},{"anonymous":false,"inputs":[{"indexed":false,"internalType":"uint256","name":"tableId","type":"uint256"},{"indexed":false,"internalType":"string","name":"tableName","type":"string"},{"indexed":false,"internalType":"string","name":"rootId","type":"string"},{"indexed":false,"internalType":"string","name":"fileCid","type":"string"}],"name":"Insert","type":"event"},{"anonymous":false,"inputs":[{"indexed":false,"internalType":"uint256","name":"tableId","type":"uint256"},{"indexed":false,"internalType":"string","name":"tableName","type":"string"},{"indexed":false,"internalType":"address","name":"owner","type":"address"}],"name":"TableCreated","type":"event"},{"anonymous":false,"inputs":[{"indexed":false,"internalType":"uint256","name":"tableId","type":"uint256"},{"indexed":false,"internalType":"string","name":"tableName","type":"string"},{"indexed":false,"internalType":"string","name":"rootId","type":"string"},{"indexed":false,"internalType":"string","name":"fileCid","type":"string"}],"name":"Update","type":"event"},{"anonymous":false,"inputs":[{"indexed":false,"internalType":"bytes32","name":"rootHash","type":"bytes32"}],"name":"UpdateRootHash","type":"event"},{"inputs":[{"internalType":"uint64","name":"id","type":"uint64"}],"name":"deleteFileInfo","outputs":[],"stateMutability":"nonpayable","type":"function"},{"inputs":[{"internalType":"address","name":"","type":"address"}],"name":"getPolicy","outputs":[{"components":[{"internalType":"bool","name":"allowInsert","type":"bool"},{"internalType":"bool","name":"allowUpdate","type":"bool"},{"internalType":"bool","name":"allowDelete","type":"bool"},{"internalType":"string","name":"whereClause","type":"string"},{"internalType":"string","name":"withCheck","type":"string"},{"internalType":"string[]","name":"updatableColumns","type":"string[]"}],"internalType":"struct TablelandPolicy","name":"","type":"tuple"}],"stateMutability":"payable","type":"function"},{"inputs":[{"internalType":"address","name":"","type":"address"},{"internalType":"uint256","name":"","type":"uint256"}],"name":"getPolicy","outputs":[{"components":[{"internalType":"bool","name":"allowInsert","type":"bool"},{"internalType":"bool","name":"allowUpdate","type":"bool"},{"internalType":"bool","name":"allowDelete","type":"bool"},{"internalType":"string","name":"whereClause","type":"string"},{"internalType":"string","name":"withCheck","type":"string"},{"internalType":"string[]","name":"updatableColumns","type":"string[]"}],"internalType":"struct TablelandPolicy","name":"","type":"tuple"}],"stateMutability":"payable","type":"function"},{"inputs":[],"name":"getRootHash","outputs":[{"internalType":"bytes32","name":"","type":"bytes32"}],"stateMutability":"view","type":"function"},{"inputs":[],"name":"getTableId","outputs":[{"internalType":"uint256","name":"","type":"uint256"}],"stateMutability":"view","type":"function"},{"inputs":[],"name":"getTableName","outputs":[{"internalType":"string","name":"","type":"string"}],"stateMutability":"view","type":"function"},{"inputs":[{"internalType":"string","name":"_rootId","type":"string"},{"internalType":"string","name":"_fileCid","type":"string"}],"name":"insertFileInfo","outputs":[],"stateMutability":"nonpayable","type":"function"},{"inputs":[{"internalType":"address","name":"","type":"address"},{"internalType":"address","name":"","type":"address"},{"internalType":"uint256","name":"","type":"uint256"},{"internalType":"bytes","name":"","type":"bytes"}],"name":"onERC721Received","outputs":[{"internalType":"bytes4","name":"","type":"bytes4"}],"stateMutability":"nonpayable","type":"function"},{"inputs":[],"name":"setAccessControl","outputs":[],"stateMutability":"nonpayable","type":"function"},{"inputs":[{"internalType":"bytes32","name":"_rootHash","type":"bytes32"}],"name":"setRootHash","outputs":[],"stateMutability":"nonpayable","type":"function"},{"inputs":[{"internalType":"uint64","name":"id","type":"uint64"},{"internalType":"string","name":"_rootId","type":"string"},{"internalType":"string","name":"_fileCid","type":"string"}],"name":"updateFileInfo","outputs":[],"stateMutability":"nonpayable","type":"function"}],"evm":{"bytecode":{"linkReferences":{},"object":"60806040523480156200001157600080fd5b506200001c62000179565b6001600160a01b031663a15ab08d30620000746040518060600160405280602f815260200162001dd1602f913960408051808201909152600e81526d66696c65696e666f5f7461626c6560901b60208201526200033f565b6040518363ffffffff1660e01b8152600401620000939291906200054f565b6020604051808303816000875af1158015620000b3573d6000803e3d6000fd5b505050506040513d601f19601f82011682018060405250810190620000d9919062000593565b600081905560408051808201909152600e81526d66696c65696e666f5f7461626c6560901b60208201526200010e9162000379565b6001906200011d908262000652565b50600380546001600160a01b031916339081179091556000546040517f1f223a276457ac3175effc37c6f5eb1d73f2b407fecc20c05f53dc5045aeec41926200016b9291600191906200071e565b60405180910390a1620008bc565b6000466001036200019d575073012969f7e3439a9b04025b5a049eb9bad82a8c1290565b46600a03620001bf575073fad44bf5b843de943a09d4f3e84949a11d3aa3e690565b4661a4b103620001e25750739abd75e8640871a5a20d3b4ee6330a04c962affd90565b4661a4ba03620002055750731a22854c5b1642760a827f20137a67930ae108d290565b46608903620002275750735c4e6a9e5c1e1bf445a062006faf19ea6c49afea90565b4661013a036200024a57507359ef8bf2d6c102b4c42aef9189e1a9f0abfd652d90565b4662aa36a7036200026e575073c50c62498448acc8dbde43da77f8d5d2e2c7597d90565b466101a40362000291575073c72e8a7be04f2469f8c2db3f1bdf69a7d516abba90565b4662066eee03620002b5575073223a74b8323914afdc3ff1e5005564dc17231d6e90565b466201388103620002d95750734b48841d4b32c4650e4abc117a03fe8b51f38f6890565b466204cb2f03620002fd575073030bcf3d50cad04c2e57391b12740982a930862190565b46617a690362000320575073e7f1725e7734ce288f8367e1bb143e90bb3f051290565b60405163264e42cf60e01b815246600482015260240160405180910390fd5b6060816200034d46620003a6565b846040516020016200036293929190620007d0565b604051602081830303815290604052905092915050565b6060826200038746620003a6565b6200039284620003a6565b60405160200162000362939291906200085c565b60606000620003b5836200043f565b60010190506000816001600160401b03811115620003d757620003d7620005ad565b6040519080825280601f01601f19166020018201604052801562000402576020820181803683370190505b5090508181016020015b600019016f181899199a1a9b1b9c1cb0b131b232b360811b600a86061a8153600a85049450846200040c57509392505050565b6000807a184f03e93ff9f4daa797ed6e38ed64bf6a1f010000000000000000831062000489577a184f03e93ff9f4daa797ed6e38ed64bf6a1f010000000000000000830492506040015b6d04ee2d6d415b85acef81000000008310620004b6576d04ee2d6d415b85acef8100000000830492506020015b662386f26fc100008310620004d557662386f26fc10000830492506010015b6305f5e1008310620004ee576305f5e100830492506008015b61271083106200050357612710830492506004015b6064831062000516576064830492506002015b600a831062000523576001015b92915050565b60005b83811015620005465781810151838201526020016200052c565b50506000910152565b60018060a01b038316815260406020820152600082518060408401526200057e81606085016020870162000529565b601f01601f1916919091016060019392505050565b600060208284031215620005a657600080fd5b5051919050565b634e487b7160e01b600052604160045260246000fd5b600181811c90821680620005d857607f821691505b602082108103620005f957634e487b7160e01b600052602260045260246000fd5b50919050565b601f8211156200064d57600081815260208120601f850160051c81016020861015620006285750805b601f850160051c820191505b81811015620006495782815560010162000634565b5050505b505050565b81516001600160401b038111156200066e576200066e620005ad565b62000686816200067f8454620005c3565b84620005ff565b602080601f831160018114620006be5760008415620006a55750858301515b600019600386901b1c1916600185901b17855562000649565b600085815260208120601f198616915b82811015620006ef57888601518255948401946001909101908401620006ce565b50858210156200070e5787850151600019600388901b60f8161c191681555b5050505050600190811b01905550565b83815260006020606081840152600085546200073a81620005c3565b80606087015260806001808416600081146200075f57600181146200077a57620007aa565b60ff1985168984015283151560051b890183019550620007aa565b8a6000528660002060005b85811015620007a25781548b820186015290830190880162000785565b8a0184019650505b505050506001600160a01b0386166040860152509150620007c89050565b949350505050565b6c021a922a0aa22902a20a126229609d1b815260008451620007fa81600d85016020890162000529565b605f60f81b600d9184019182015284516200081d81600e84016020890162000529565b600560fb1b600e929091019182015283516200084181600f84016020880162000529565b602960f81b600f929091019182015260100195945050505050565b600084516200087081846020890162000529565b8083019050605f60f81b808252855162000892816001850160208a0162000529565b60019201918201528351620008af81600284016020880162000529565b0160020195945050505050565b61150580620008cc6000396000f3fe60806040526004361061009c5760003560e01c80635d5a33a2116100645780635d5a33a21461016c57806366df322e1461018e57806380759f1f146101a157806388e4f1cb146101c057806397f669c8146101d5578063ee3b51b4146101ea57600080fd5b80630133e044146100a1578063150b7a02146100c35780632d7eae661461010c5780633791dc6a1461012c5780634b5193731461014c575b600080fd5b3480156100ad57600080fd5b506100c16100bc366004610d86565b61020a565b005b3480156100cf57600080fd5b506100ee6100de366004610e06565b630a85bd0160e11b949350505050565b6040516001600160e01b031990911681526020015b60405180910390f35b34801561011857600080fd5b506100c1610127366004610e82565b610344565b61013f61013a366004610e9b565b61037f565b6040516101039190610f06565b34801561015857600080fd5b506100c1610167366004610fe0565b6103b3565b34801561017857600080fd5b506101816104ba565b6040516101039190610ffb565b61013f61019c36600461100e565b6104f3565b3480156101ad57600080fd5b506002545b604051908152602001610103565b3480156101cc57600080fd5b506000546101b2565b3480156101e157600080fd5b506100c161062a565b3480156101f657600080fd5b506100c1610205366004611038565b610703565b610212610854565b6001600160a01b031663377af0da306000546102b06040518060400160405280600e81526020016d66696c65696e666f5f7461626c6560901b8152506000546040518060400160405280600f81526020016e1c9bdbdd12590b08199a5b1950da59608a1b8152506102828a610a0a565b61028b8a610a0a565b60405160200161029c9291906110ac565b604051602081830303815290604052610a33565b6040518463ffffffff1660e01b81526004016102ce939291906110e8565b600060405180830381600087803b1580156102e857600080fd5b505af11580156102fc573d6000803e3d6000fd5b505050507fb7379d6df185794b466f2cfc6f723deca1680b4062a01826168681a7514a5aa86000546001848460405161033894939291906111bc565b60405180910390a15050565b60028190556040518181527f02464dc1edf59068643c5a03b10d5966b709dfa3bf1d6743e75e60cfae2c63e39060200160405180910390a150565b6040805160c08101825260008082526020820181905291810182905260608082018190526080820181905260a08201529080fd5b60006103c88267ffffffffffffffff16610a72565b6040516020016103d89190611206565b60405160208183030381529060405290506103f1610854565b6001600160a01b031663377af0da306000546104366040518060400160405280600e81526020016d66696c65696e666f5f7461626c6560901b81525060005487610b05565b6040518463ffffffff1660e01b8152600401610454939291906110e8565b600060405180830381600087803b15801561046e57600080fd5b505af1158015610482573d6000803e3d6000fd5b505050507f7b38a39fc9f8cea88036a49ca103f0521f7758af730b4ca9e0ceacfdf8c802356000546001604051610338929190611231565b60606104ee6040518060400160405280600e81526020016d66696c65696e666f5f7461626c6560901b815250600054610b41565b905090565b6040805160c08101825260008082526020820181905281830181905260608083018190526080830181905260a083018190528351600280825291810190945291929091816020015b606081526020019060019003908161053b579050509050604051806040016040528060068152602001651c9bdbdd125960d21b8152508160008151811061058457610584611252565b602002602001018190525060405180604001604052806007815260200166199a5b1950da5960ca1b815250816001815181106105c2576105c2611252565b60200260200101819052506040518060c001604052806001151581526020016001151581526020016001151581526020016040518060200160405280600081525081526020016040518060200160405280600081525081526020018281525091505092915050565b6003546001600160a01b031633146106895760405162461bcd60e51b815260206004820152601860248201527f6d73672e73656e646572206d757374206265206f776e6572000000000000000060448201526064015b60405180910390fd5b610691610854565b600054604051638bb0ab9760e01b81523060048201819052602482019290925260448101919091526001600160a01b039190911690638bb0ab9790606401600060405180830381600087803b1580156106e957600080fd5b505af11580156106fd573d6000803e3d6000fd5b50505050565b600061070e83610a0a565b61071783610a0a565b604051602001610728929190611268565b6040516020818303038152906040529050600061074e8567ffffffffffffffff16610a72565b60405160200161075e9190611206565b6040516020818303038152906040529050610777610854565b6001600160a01b031663377af0da306000546107bd6040518060400160405280600e81526020016d66696c65696e666f5f7461626c6560901b8152506000548888610b7f565b6040518463ffffffff1660e01b81526004016107db939291906110e8565b600060405180830381600087803b1580156107f557600080fd5b505af1158015610809573d6000803e3d6000fd5b505050507feb49f7181cc0da7406125224373eee9a7e5b640fd401f42801b825006aac841b6000546001868660405161084594939291906111bc565b60405180910390a15050505050565b600046600103610877575073012969f7e3439a9b04025b5a049eb9bad82a8c1290565b46600a03610898575073fad44bf5b843de943a09d4f3e84949a11d3aa3e690565b4661a4b1036108ba5750739abd75e8640871a5a20d3b4ee6330a04c962affd90565b4661a4ba036108dc5750731a22854c5b1642760a827f20137a67930ae108d290565b466089036108fd5750735c4e6a9e5c1e1bf445a062006faf19ea6c49afea90565b4661013a0361091f57507359ef8bf2d6c102b4c42aef9189e1a9f0abfd652d90565b4662aa36a703610942575073c50c62498448acc8dbde43da77f8d5d2e2c7597d90565b466101a403610964575073c72e8a7be04f2469f8c2db3f1bdf69a7d516abba90565b4662066eee03610987575073223a74b8323914afdc3ff1e5005564dc17231d6e90565b4662013881036109aa5750734b48841d4b32c4650e4abc117a03fe8b51f38f6890565b466204cb2f036109cd575073030bcf3d50cad04c2e57391b12740982a930862190565b46617a69036109ef575073e7f1725e7734ce288f8367e1bb143e90bb3f051290565b60405163264e42cf60e01b8152466004820152602401610680565b606081604051602001610a1d91906112c8565b6040516020818303038152906040529050919050565b60606000610a418686610b41565b9050808484604051602001610a58939291906112f6565b604051602081830303815290604052915050949350505050565b60606000610a7f83610bfa565b600101905060008167ffffffffffffffff811115610a9f57610a9f610cd3565b6040519080825280601f01601f191660200182016040528015610ac9576020820181803683370190505b5090508181016020015b600019016f181899199a1a9b1b9c1cb0b131b232b360811b600a86061a8153600a8504945084610ad357509392505050565b60606000610b138585610b41565b90508083604051602001610b28929190611382565b6040516020818303038152906040529150509392505050565b606082610b4d46610a72565b610b5684610a72565b604051602001610b68939291906113dc565b604051602081830303815290604052905092915050565b60606000610b8d8686610b41565b60408051602081019091526000815284519192509015610bca5783604051602001610bb89190611436565b60405160208183030381529060405290505b818582604051602001610bdf93929190611465565b60405160208183030381529060405292505050949350505050565b60008072184f03e93ff9f4daa797ed6e38ed64bf6a1f0160401b8310610c395772184f03e93ff9f4daa797ed6e38ed64bf6a1f0160401b830492506040015b6d04ee2d6d415b85acef81000000008310610c65576d04ee2d6d415b85acef8100000000830492506020015b662386f26fc100008310610c8357662386f26fc10000830492506010015b6305f5e1008310610c9b576305f5e100830492506008015b6127108310610caf57612710830492506004015b60648310610cc1576064830492506002015b600a8310610ccd576001015b92915050565b634e487b7160e01b600052604160045260246000fd5b600067ffffffffffffffff80841115610d0457610d04610cd3565b604051601f8501601f19908116603f01168101908282118183101715610d2c57610d2c610cd3565b81604052809350858152868686011115610d4557600080fd5b858560208301376000602087830101525050509392505050565b600082601f830112610d7057600080fd5b610d7f83833560208501610ce9565b9392505050565b60008060408385031215610d9957600080fd5b823567ffffffffffffffff80821115610db157600080fd5b610dbd86838701610d5f565b93506020850135915080821115610dd357600080fd5b50610de085828601610d5f565b9150509250929050565b80356001600160a01b0381168114610e0157600080fd5b919050565b60008060008060808587031215610e1c57600080fd5b610e2585610dea565b9350610e3360208601610dea565b925060408501359150606085013567ffffffffffffffff811115610e5657600080fd5b8501601f81018713610e6757600080fd5b610e7687823560208401610ce9565b91505092959194509250565b600060208284031215610e9457600080fd5b5035919050565b600060208284031215610ead57600080fd5b610d7f82610dea565b60005b83811015610ed1578181015183820152602001610eb9565b50506000910152565b60008151808452610ef2816020860160208601610eb6565b601f01601f19169290920160200192915050565b6000602080835283511515818401528084015115156040840152604084015115156060840152606084015160c06080850152610f4560e0850182610eda565b90506080850151601f19808684030160a0870152610f638383610eda565b60a0880151878203830160c089015280518083529194508501925084840190600581901b8501860160005b82811015610fba5784878303018452610fa8828751610eda565b95880195938801939150600101610f8e565b509998505050505050505050565b803567ffffffffffffffff81168114610e0157600080fd5b600060208284031215610ff257600080fd5b610d7f82610fc8565b602081526000610d7f6020830184610eda565b6000806040838503121561102157600080fd5b61102a83610dea565b946020939093013593505050565b60008060006060848603121561104d57600080fd5b61105684610fc8565b9250602084013567ffffffffffffffff8082111561107357600080fd5b61107f87838801610d5f565b9350604086013591508082111561109557600080fd5b506110a286828701610d5f565b9150509250925092565b600083516110be818460208801610eb6565b600b60fa1b90830190815283516110dc816001840160208801610eb6565b01600101949350505050565b60018060a01b038416815282602082015260606040820152600061110f6060830184610eda565b95945050505050565b8054600090600181811c908083168061113257607f831692505b6020808410820361115357634e487b7160e01b600052602260045260246000fd5b8388526020880182801561116e5760018114611184576111af565b60ff198716825285151560051b820197506111af565b60008981526020902060005b878110156111a957815484820152908601908401611190565b83019850505b5050505050505092915050565b8481526080602082015260006111d56080830186611118565b82810360408401526111e78186610eda565b905082810360608401526111fb8185610eda565b979650505050505050565b6269643d60e81b815260008251611224816003850160208701610eb6565b9190910160030192915050565b82815260406020820152600061124a6040830184611118565b949350505050565b634e487b7160e01b600052603260045260246000fd5b66726f6f7449643d60c81b81526000835161128a816007850160208801610eb6565b600b60fa1b6007918401918201526766696c654369643d60c01b600882015283516112bc816010840160208801610eb6565b01601001949350505050565b6000602760f81b80835283516112e5816001860160208801610eb6565b600193019283015250600201919050565b6b024a729a2a92a1024a72a27960a51b81526000845161131d81600c850160208901610eb6565b600560fb1b600c91840191820152845161133e81600d840160208901610eb6565b67052ac8298aa8aa6560c31b600d92909101918201528351611367816015840160208801610eb6565b602960f81b6015929091019182015260160195945050505050565b6b02222a622aa2290232927a6960a51b8152600083516113a981600c850160208801610eb6565b660102ba422a922960cd1b600c9184019182015283516113d0816013840160208801610eb6565b01601301949350505050565b600084516113ee818460208901610eb6565b8083019050605f60f81b808252855161140e816001850160208a01610eb6565b60019201918201528351611429816002840160208801610eb6565b0160020195945050505050565b660102ba422a922960cd1b815260008251611458816007850160208701610eb6565b9190910160070192915050565b6602aa82220aa22960cd1b815260008451611487816007850160208901610eb6565b6401029a2aa160dd1b60079184019182015284516114ac81600c840160208901610eb6565b84519101906114c281600c840160208801610eb6565b01600c019594505050505056fea2646970667358221220a93d30fe60b0855594cc800cc8aa301f81a8d582d4711faf5048529c71c8128064736f6c63430008140033696420696e7465676572207072696d617279206b65792c726f6f74496420746578742c66696c654369642074657874","opcodes":"PUSH1 0x80 PUSH1 0x40 MSTORE CALLVALUE DUP1 ISZERO PUSH3 0x11 JUMPI PUSH1 0x0 DUP1 REVERT JUMPDEST POP PUSH3 0x1C PUSH3 0x179 JUMP JUMPDEST PUSH1 0x1 PUSH1 0x1 PUSH1 0xA0 SHL SUB AND PUSH4 0xA15AB08D ADDRESS PUSH3 0x74 PUSH1 0x40 MLOAD DUP1 PUSH1 0x60 ADD PUSH1 0x40 MSTORE DUP1 PUSH1 0x2F DUP2 MSTORE PUSH1 0x20 ADD PUSH3 0x1DD1 PUSH1 0x2F SWAP2 CODECOPY PUSH1 0x40 DUP1 MLOAD DUP1 DUP3 ADD SWAP1 SWAP2 MSTORE PUSH1 0xE DUP2 MSTORE PUSH14 0x66696C65696E666F5F7461626C65 PUSH1 0x90 SHL PUSH1 0x20 DUP3 ADD MSTORE PUSH3 0x33F JUMP JUMPDEST PUSH1 0x40 MLOAD DUP4 PUSH4 0xFFFFFFFF AND PUSH1 0xE0 SHL DUP2 MSTORE PUSH1 0x4 ADD PUSH3 0x93 SWAP3 SWAP2 SWAP1 PUSH3 0x54F JUMP JUMPDEST PUSH1 0x20 PUSH1 0x40 MLOAD DUP1 DUP4 SUB DUP2 PUSH1 0x0 DUP8 GAS CALL ISZERO DUP1 ISZERO PUSH3 0xB3 JUMPI RETURNDATASIZE PUSH1 0x0 DUP1 RETURNDATACOPY RETURNDATASIZE PUSH1 0x0 REVERT JUMPDEST POP POP POP POP PUSH1 0x40 MLOAD RETURNDATASIZE PUSH1 0x1F NOT PUSH1 0x1F DUP3 ADD AND DUP3 ADD DUP1 PUSH1 0x40 MSTORE POP DUP2 ADD SWAP1 PUSH3 0xD9 SWAP2 SWAP1 PUSH3 0x593 JUMP JUMPDEST PUSH1 0x0 DUP2 SWAP1 SSTORE PUSH1 0x40 DUP1 MLOAD DUP1 DUP3 ADD SWAP1 SWAP2 MSTORE PUSH1 0xE DUP2 MSTORE PUSH14 0x66696C65696E666F5F7461626C65 PUSH1 0x90 SHL PUSH1 0x20 DUP3 ADD MSTORE PUSH3 0x10E SWAP2 PUSH3 0x379 JUMP JUMPDEST PUSH1 0x1 SWAP1 PUSH3 0x11D SWAP1 DUP3 PUSH3 0x652 JUMP JUMPDEST POP PUSH1 0x3 DUP1 SLOAD PUSH1 0x1 PUSH1 0x1 PUSH1 0xA0 SHL SUB NOT AND CALLER SWAP1 DUP2 OR SWAP1 SWAP2 SSTORE PUSH1 0x0 SLOAD PUSH1 0x40 MLOAD PUSH32 0x1F223A276457AC3175EFFC37C6F5EB1D73F2B407FECC20C05F53DC5045AEEC41 SWAP3 PUSH3 0x16B SWAP3 SWAP2 PUSH1 0x1 SWAP2 SWAP1 PUSH3 0x71E JUMP JUMPDEST PUSH1 0x40 MLOAD DUP1 SWAP2 SUB SWAP1 LOG1 PUSH3 0x8BC JUMP JUMPDEST PUSH1 0x0 CHAINID PUSH1 0x1 SUB PUSH3 0x19D JUMPI POP PUSH20 0x12969F7E3439A9B04025B5A049EB9BAD82A8C12 SWAP1 JUMP JUMPDEST CHAINID PUSH1 0xA SUB PUSH3 0x1BF JUMPI POP PUSH20 0xFAD44BF5B843DE943A09D4F3E84949A11D3AA3E6 SWAP1 JUMP JUMPDEST CHAINID PUSH2 0xA4B1 SUB PUSH3 0x1E2 JUMPI POP PUSH20 0x9ABD75E8640871A5A20D3B4EE6330A04C962AFFD SWAP1 JUMP JUMPDEST CHAINID PUSH2 0xA4BA SUB PUSH3 0x205 JUMPI POP PUSH20 0x1A22854C5B1642760A827F20137A67930AE108D2 SWAP1 JUMP JUMPDEST CHAINID PUSH1 0x89 SUB PUSH3 0x227 JUMPI POP PUSH20 0x5C4E6A9E5C1E1BF445A062006FAF19EA6C49AFEA SWAP1 JUMP JUMPDEST CHAINID PUSH2 0x13A SUB PUSH3 0x24A JUMPI POP PUSH20 0x59EF8BF2D6C102B4C42AEF9189E1A9F0ABFD652D SWAP1 JUMP JUMPDEST CHAINID PUSH3 0xAA36A7 SUB PUSH3 0x26E JUMPI POP PUSH20 0xC50C62498448ACC8DBDE43DA77F8D5D2E2C7597D SWAP1 JUMP JUMPDEST CHAINID PUSH2 0x1A4 SUB PUSH3 0x291 JUMPI POP PUSH20 0xC72E8A7BE04F2469F8C2DB3F1BDF69A7D516ABBA SWAP1 JUMP JUMPDEST CHAINID PUSH3 0x66EEE SUB PUSH3 0x2B5 JUMPI POP PUSH20 0x223A74B8323914AFDC3FF1E5005564DC17231D6E SWAP1 JUMP JUMPDEST CHAINID PUSH3 0x13881 SUB PUSH3 0x2D9 JUMPI POP PUSH20 0x4B48841D4B32C4650E4ABC117A03FE8B51F38F68 SWAP1 JUMP JUMPDEST CHAINID PUSH3 0x4CB2F SUB PUSH3 0x2FD JUMPI POP PUSH20 0x30BCF3D50CAD04C2E57391B12740982A9308621 SWAP1 JUMP JUMPDEST CHAINID PUSH2 0x7A69 SUB PUSH3 0x320 JUMPI POP PUSH20 0xE7F1725E7734CE288F8367E1BB143E90BB3F0512 SWAP1 JUMP JUMPDEST PUSH1 0x40 MLOAD PUSH4 0x264E42CF PUSH1 0xE0 SHL DUP2 MSTORE CHAINID PUSH1 0x4 DUP3 ADD MSTORE PUSH1 0x24 ADD PUSH1 0x40 MLOAD DUP1 SWAP2 SUB SWAP1 REVERT JUMPDEST PUSH1 0x60 DUP2 PUSH3 0x34D CHAINID PUSH3 0x3A6 JUMP JUMPDEST DUP5 PUSH1 0x40 MLOAD PUSH1 0x20 ADD PUSH3 0x362 SWAP4 SWAP3 SWAP2 SWAP1 PUSH3 0x7D0 JUMP JUMPDEST PUSH1 0x40 MLOAD PUSH1 0x20 DUP2 DUP4 SUB SUB DUP2 MSTORE SWAP1 PUSH1 0x40 MSTORE SWAP1 POP SWAP3 SWAP2 POP POP JUMP JUMPDEST PUSH1 0x60 DUP3 PUSH3 0x387 CHAINID PUSH3 0x3A6 JUMP JUMPDEST PUSH3 0x392 DUP5 PUSH3 0x3A6 JUMP JUMPDEST PUSH1 0x40 MLOAD PUSH1 0x20 ADD PUSH3 0x362 SWAP4 SWAP3 SWAP2 SWAP1 PUSH3 0x85C JUMP JUMPDEST PUSH1 0x60 PUSH1 0x0 PUSH3 0x3B5 DUP4 PUSH3 0x43F JUMP JUMPDEST PUSH1 0x1 ADD SWAP1 POP PUSH1 0x0 DUP2 PUSH1 0x1 PUSH1 0x1 PUSH1 0x40 SHL SUB DUP2 GT ISZERO PUSH3 0x3D7 JUMPI PUSH3 0x3D7 PUSH3 0x5AD JUMP JUMPDEST PUSH1 0x40 MLOAD SWAP1 DUP1 DUP3 MSTORE DUP1 PUSH1 0x1F ADD PUSH1 0x1F NOT AND PUSH1 0x20 ADD DUP3 ADD PUSH1 0x40 MSTORE DUP1 ISZERO PUSH3 0x402 JUMPI PUSH1 0x20 DUP3 ADD DUP2 DUP1 CALLDATASIZE DUP4 CALLDATACOPY ADD SWAP1 POP JUMPDEST POP SWAP1 POP DUP2 DUP2 ADD PUSH1 0x20 ADD JUMPDEST PUSH1 0x0 NOT ADD PUSH16 0x181899199A1A9B1B9C1CB0B131B232B3 PUSH1 0x81 SHL PUSH1 0xA DUP7 MOD BYTE DUP2 MSTORE8 PUSH1 0xA DUP6 DIV SWAP5 POP DUP5 PUSH3 0x40C JUMPI POP SWAP4 SWAP3 POP POP POP JUMP JUMPDEST PUSH1 0x0 DUP1 PUSH27 0x184F03E93FF9F4DAA797ED6E38ED64BF6A1F010000000000000000 DUP4 LT PUSH3 0x489 JUMPI PUSH27 0x184F03E93FF9F4DAA797ED6E38ED64BF6A1F010000000000000000 DUP4 DIV SWAP3 POP PUSH1 0x40 ADD JUMPDEST PUSH14 0x4EE2D6D415B85ACEF8100000000 DUP4 LT PUSH3 0x4B6 JUMPI PUSH14 0x4EE2D6D415B85ACEF8100000000 DUP4 DIV SWAP3 POP PUSH1 0x20 ADD JUMPDEST PUSH7 0x2386F26FC10000 DUP4 LT PUSH3 0x4D5 JUMPI PUSH7 0x2386F26FC10000 DUP4 DIV SWAP3 POP PUSH1 0x10 ADD JUMPDEST PUSH4 0x5F5E100 DUP4 LT PUSH3 0x4EE JUMPI PUSH4 0x5F5E100 DUP4 DIV SWAP3 POP PUSH1 0x8 ADD JUMPDEST PUSH2 0x2710 DUP4 LT PUSH3 0x503 JUMPI PUSH2 0x2710 DUP4 DIV SWAP3 POP PUSH1 0x4 ADD JUMPDEST PUSH1 0x64 DUP4 LT PUSH3 0x516 JUMPI PUSH1 0x64 DUP4 DIV SWAP3 POP PUSH1 0x2 ADD JUMPDEST PUSH1 0xA DUP4 LT PUSH3 0x523 JUMPI PUSH1 0x1 ADD JUMPDEST SWAP3 SWAP2 POP POP JUMP JUMPDEST PUSH1 0x0 JUMPDEST DUP4 DUP2 LT ISZERO PUSH3 0x546 JUMPI DUP2 DUP2 ADD MLOAD DUP4 DUP3 ADD MSTORE PUSH1 0x20 ADD PUSH3 0x52C JUMP JUMPDEST POP POP PUSH1 0x0 SWAP2 ADD MSTORE JUMP JUMPDEST PUSH1 0x1 DUP1 PUSH1 0xA0 SHL SUB DUP4 AND DUP2 MSTORE PUSH1 0x40 PUSH1 0x20 DUP3 ADD MSTORE PUSH1 0x0 DUP3 MLOAD DUP1 PUSH1 0x40 DUP5 ADD MSTORE PUSH3 0x57E DUP2 PUSH1 0x60 DUP6 ADD PUSH1 0x20 DUP8 ADD PUSH3 0x529 JUMP JUMPDEST PUSH1 0x1F ADD PUSH1 0x1F NOT AND SWAP2 SWAP1 SWAP2 ADD PUSH1 0x60 ADD SWAP4 SWAP3 POP POP POP JUMP JUMPDEST PUSH1 0x0 PUSH1 0x20 DUP3 DUP5 SUB SLT ISZERO PUSH3 0x5A6 JUMPI PUSH1 0x0 DUP1 REVERT JUMPDEST POP MLOAD SWAP2 SWAP1 POP JUMP JUMPDEST PUSH4 0x4E487B71 PUSH1 0xE0 SHL PUSH1 0x0 MSTORE PUSH1 0x41 PUSH1 0x4 MSTORE PUSH1 0x24 PUSH1 0x0 REVERT JUMPDEST PUSH1 0x1 DUP2 DUP2 SHR SWAP1 DUP3 AND DUP1 PUSH3 0x5D8 JUMPI PUSH1 0x7F DUP3 AND SWAP2 POP JUMPDEST PUSH1 0x20 DUP3 LT DUP2 SUB PUSH3 0x5F9 JUMPI PUSH4 0x4E487B71 PUSH1 0xE0 SHL PUSH1 0x0 MSTORE PUSH1 0x22 PUSH1 0x4 MSTORE PUSH1 0x24 PUSH1 0x0 REVERT JUMPDEST POP SWAP2 SWAP1 POP JUMP JUMPDEST PUSH1 0x1F DUP3 GT ISZERO PUSH3 0x64D JUMPI PUSH1 0x0 DUP2 DUP2 MSTORE PUSH1 0x20 DUP2 KECCAK256 PUSH1 0x1F DUP6 ADD PUSH1 0x5 SHR DUP2 ADD PUSH1 0x20 DUP7 LT ISZERO PUSH3 0x628 JUMPI POP DUP1 JUMPDEST PUSH1 0x1F DUP6 ADD PUSH1 0x5 SHR DUP3 ADD SWAP2 POP JUMPDEST DUP2 DUP2 LT ISZERO PUSH3 0x649 JUMPI DUP3 DUP2 SSTORE PUSH1 0x1 ADD PUSH3 0x634 JUMP JUMPDEST POP POP POP JUMPDEST POP POP POP JUMP JUMPDEST DUP2 MLOAD PUSH1 0x1 PUSH1 0x1 PUSH1 0x40 SHL SUB DUP2 GT ISZERO PUSH3 0x66E JUMPI PUSH3 0x66E PUSH3 0x5AD JUMP JUMPDEST PUSH3 0x686 DUP2 PUSH3 0x67F DUP5 SLOAD PUSH3 0x5C3 JUMP JUMPDEST DUP5 PUSH3 0x5FF JUMP JUMPDEST PUSH1 0x20 DUP1 PUSH1 0x1F DUP4 GT PUSH1 0x1 DUP2 EQ PUSH3 0x6BE JUMPI PUSH1 0x0 DUP5 ISZERO PUSH3 0x6A5 JUMPI POP DUP6 DUP4 ADD MLOAD JUMPDEST PUSH1 0x0 NOT PUSH1 0x3 DUP7 SWAP1 SHL SHR NOT AND PUSH1 0x1 DUP6 SWAP1 SHL OR DUP6 SSTORE PUSH3 0x649 JUMP JUMPDEST PUSH1 0x0 DUP6 DUP2 MSTORE PUSH1 0x20 DUP2 KECCAK256 PUSH1 0x1F NOT DUP7 AND SWAP2 JUMPDEST DUP3 DUP2 LT ISZERO PUSH3 0x6EF JUMPI DUP9 DUP7 ADD MLOAD DUP3 SSTORE SWAP5 DUP5 ADD SWAP5 PUSH1 0x1 SWAP1 SWAP2 ADD SWAP1 DUP5 ADD PUSH3 0x6CE JUMP JUMPDEST POP DUP6 DUP3 LT ISZERO PUSH3 0x70E JUMPI DUP8 DUP6 ADD MLOAD PUSH1 0x0 NOT PUSH1 0x3 DUP9 SWAP1 SHL PUSH1 0xF8 AND SHR NOT AND DUP2 SSTORE JUMPDEST POP POP POP POP POP PUSH1 0x1 SWAP1 DUP2 SHL ADD SWAP1 SSTORE POP JUMP JUMPDEST DUP4 DUP2 MSTORE PUSH1 0x0 PUSH1 0x20 PUSH1 0x60 DUP2 DUP5 ADD MSTORE PUSH1 0x0 DUP6 SLOAD PUSH3 0x73A DUP2 PUSH3 0x5C3 JUMP JUMPDEST DUP1 PUSH1 0x60 DUP8 ADD MSTORE PUSH1 0x80 PUSH1 0x1 DUP1 DUP5 AND PUSH1 0x0 DUP2 EQ PUSH3 0x75F JUMPI PUSH1 0x1 DUP2 EQ PUSH3 0x77A JUMPI PUSH3 0x7AA JUMP JUMPDEST PUSH1 0xFF NOT DUP6 AND DUP10 DUP5 ADD MSTORE DUP4 ISZERO ISZERO PUSH1 0x5 SHL DUP10 ADD DUP4 ADD SWAP6 POP PUSH3 0x7AA JUMP JUMPDEST DUP11 PUSH1 0x0 MSTORE DUP7 PUSH1 0x0 KECCAK256 PUSH1 0x0 JUMPDEST DUP6 DUP2 LT ISZERO PUSH3 0x7A2 JUMPI DUP2 SLOAD DUP12 DUP3 ADD DUP7 ADD MSTORE SWAP1 DUP4 ADD SWAP1 DUP9 ADD PUSH3 0x785 JUMP JUMPDEST DUP11 ADD DUP5 ADD SWAP7 POP POP JUMPDEST POP POP POP POP PUSH1 0x1 PUSH1 0x1 PUSH1 0xA0 SHL SUB DUP7 AND PUSH1 0x40 DUP7 ADD MSTORE POP SWAP2 POP PUSH3 0x7C8 SWAP1 POP JUMP JUMPDEST SWAP5 SWAP4 POP POP POP POP JUMP JUMPDEST PUSH13 0x21A922A0AA22902A20A126229 PUSH1 0x9D SHL DUP2 MSTORE PUSH1 0x0 DUP5 MLOAD PUSH3 0x7FA DUP2 PUSH1 0xD DUP6 ADD PUSH1 0x20 DUP10 ADD PUSH3 0x529 JUMP JUMPDEST PUSH1 0x5F PUSH1 0xF8 SHL PUSH1 0xD SWAP2 DUP5 ADD SWAP2 DUP3 ADD MSTORE DUP5 MLOAD PUSH3 0x81D DUP2 PUSH1 0xE DUP5 ADD PUSH1 0x20 DUP10 ADD PUSH3 0x529 JUMP JUMPDEST PUSH1 0x5 PUSH1 0xFB SHL PUSH1 0xE SWAP3 SWAP1 SWAP2 ADD SWAP2 DUP3 ADD MSTORE DUP4 MLOAD PUSH3 0x841 DUP2 PUSH1 0xF DUP5 ADD PUSH1 0x20 DUP9 ADD PUSH3 0x529 JUMP JUMPDEST PUSH1 0x29 PUSH1 0xF8 SHL PUSH1 0xF SWAP3 SWAP1 SWAP2 ADD SWAP2 DUP3 ADD MSTORE PUSH1 0x10 ADD SWAP6 SWAP5 POP POP POP POP POP JUMP JUMPDEST PUSH1 0x0 DUP5 MLOAD PUSH3 0x870 DUP2 DUP5 PUSH1 0x20 DUP10 ADD PUSH3 0x529 JUMP JUMPDEST DUP1 DUP4 ADD SWAP1 POP PUSH1 0x5F PUSH1 0xF8 SHL DUP1 DUP3 MSTORE DUP6 MLOAD PUSH3 0x892 DUP2 PUSH1 0x1 DUP6 ADD PUSH1 0x20 DUP11 ADD PUSH3 0x529 JUMP JUMPDEST PUSH1 0x1 SWAP3 ADD SWAP2 DUP3 ADD MSTORE DUP4 MLOAD PUSH3 0x8AF DUP2 PUSH1 0x2 DUP5 ADD PUSH1 0x20 DUP9 ADD PUSH3 0x529 JUMP JUMPDEST ADD PUSH1 0x2 ADD SWAP6 SWAP5 POP POP POP POP POP JUMP JUMPDEST PUSH2 0x1505 DUP1 PUSH3 0x8CC PUSH1 0x0 CODECOPY PUSH1 0x0 RETURN INVALID PUSH1 0x80 PUSH1 0x40 MSTORE PUSH1 0x4 CALLDATASIZE LT PUSH2 0x9C JUMPI PUSH1 0x0 CALLDATALOAD PUSH1 0xE0 SHR DUP1 PUSH4 0x5D5A33A2 GT PUSH2 0x64 JUMPI DUP1 PUSH4 0x5D5A33A2 EQ PUSH2 0x16C JUMPI DUP1 PUSH4 0x66DF322E EQ PUSH2 0x18E JUMPI DUP1 PUSH4 0x80759F1F EQ PUSH2 0x1A1 JUMPI DUP1 PUSH4 0x88E4F1CB EQ PUSH2 0x1C0 JUMPI DUP1 PUSH4 0x97F669C8 EQ PUSH2 0x1D5 JUMPI DUP1 PUSH4 0xEE3B51B4 EQ PUSH2 0x1EA JUMPI PUSH1 0x0 DUP1 REVERT JUMPDEST DUP1 PUSH4 0x133E044 EQ PUSH2 0xA1 JUMPI DUP1 PUSH4 0x150B7A02 EQ PUSH2 0xC3 JUMPI DUP1 PUSH4 0x2D7EAE66 EQ PUSH2 0x10C JUMPI DUP1 PUSH4 0x3791DC6A EQ PUSH2 0x12C JUMPI DUP1 PUSH4 0x4B519373 EQ PUSH2 0x14C JUMPI JUMPDEST PUSH1 0x0 DUP1 REVERT JUMPDEST CALLVALUE DUP1 ISZERO PUSH2 0xAD JUMPI PUSH1 0x0 DUP1 REVERT JUMPDEST POP PUSH2 0xC1 PUSH2 0xBC CALLDATASIZE PUSH1 0x4 PUSH2 0xD86 JUMP JUMPDEST PUSH2 0x20A JUMP JUMPDEST STOP JUMPDEST CALLVALUE DUP1 ISZERO PUSH2 0xCF JUMPI PUSH1 0x0 DUP1 REVERT JUMPDEST POP PUSH2 0xEE PUSH2 0xDE CALLDATASIZE PUSH1 0x4 PUSH2 0xE06 JUMP JUMPDEST PUSH4 0xA85BD01 PUSH1 0xE1 SHL SWAP5 SWAP4 POP POP POP POP JUMP JUMPDEST PUSH1 0x40 MLOAD PUSH1 0x1 PUSH1 0x1 PUSH1 0xE0 SHL SUB NOT SWAP1 SWAP2 AND DUP2 MSTORE PUSH1 0x20 ADD JUMPDEST PUSH1 0x40 MLOAD DUP1 SWAP2 SUB SWAP1 RETURN JUMPDEST CALLVALUE DUP1 ISZERO PUSH2 0x118 JUMPI PUSH1 0x0 DUP1 REVERT JUMPDEST POP PUSH2 0xC1 PUSH2 0x127 CALLDATASIZE PUSH1 0x4 PUSH2 0xE82 JUMP JUMPDEST PUSH2 0x344 JUMP JUMPDEST PUSH2 0x13F PUSH2 0x13A CALLDATASIZE PUSH1 0x4 PUSH2 0xE9B JUMP JUMPDEST PUSH2 0x37F JUMP JUMPDEST PUSH1 0x40 MLOAD PUSH2 0x103 SWAP2 SWAP1 PUSH2 0xF06 JUMP JUMPDEST CALLVALUE DUP1 ISZERO PUSH2 0x158 JUMPI PUSH1 0x0 DUP1 REVERT JUMPDEST POP PUSH2 0xC1 PUSH2 0x167 CALLDATASIZE PUSH1 0x4 PUSH2 0xFE0 JUMP JUMPDEST PUSH2 0x3B3 JUMP JUMPDEST CALLVALUE DUP1 ISZERO PUSH2 0x178 JUMPI PUSH1 0x0 DUP1 REVERT JUMPDEST POP PUSH2 0x181 PUSH2 0x4BA JUMP JUMPDEST PUSH1 0x40 MLOAD PUSH2 0x103 SWAP2 SWAP1 PUSH2 0xFFB JUMP JUMPDEST PUSH2 0x13F PUSH2 0x19C CALLDATASIZE PUSH1 0x4 PUSH2 0x100E JUMP JUMPDEST PUSH2 0x4F3 JUMP JUMPDEST CALLVALUE DUP1 ISZERO PUSH2 0x1AD JUMPI PUSH1 0x0 DUP1 REVERT JUMPDEST POP PUSH1 0x2 SLOAD JUMPDEST PUSH1 0x40 MLOAD SWAP1 DUP2 MSTORE PUSH1 0x20 ADD PUSH2 0x103 JUMP JUMPDEST CALLVALUE DUP1 ISZERO PUSH2 0x1CC JUMPI PUSH1 0x0 DUP1 REVERT JUMPDEST POP PUSH1 0x0 SLOAD PUSH2 0x1B2 JUMP JUMPDEST CALLVALUE DUP1 ISZERO PUSH2 0x1E1 JUMPI PUSH1 0x0 DUP1 REVERT JUMPDEST POP PUSH2 0xC1 PUSH2 0x62A JUMP JUMPDEST CALLVALUE DUP1 ISZERO PUSH2 0x1F6 JUMPI PUSH1 0x0 DUP1 REVERT JUMPDEST POP PUSH2 0xC1 PUSH2 0x205 CALLDATASIZE PUSH1 0x4 PUSH2 0x1038 JUMP JUMPDEST PUSH2 0x703 JUMP JUMPDEST PUSH2 0x212 PUSH2 0x854 JUMP JUMPDEST PUSH1 0x1 PUSH1 0x1 PUSH1 0xA0 SHL SUB AND PUSH4 0x377AF0DA ADDRESS PUSH1 0x0 SLOAD PUSH2 0x2B0 PUSH1 0x40 MLOAD DUP1 PUSH1 0x40 ADD PUSH1 0x40 MSTORE DUP1 PUSH1 0xE DUP2 MSTORE PUSH1 0x20 ADD PUSH14 0x66696C65696E666F5F7461626C65 PUSH1 0x90 SHL DUP2 MSTORE POP PUSH1 0x0 SLOAD PUSH1 0x40 MLOAD DUP1 PUSH1 0x40 ADD PUSH1 0x40 MSTORE DUP1 PUSH1 0xF DUP2 MSTORE PUSH1 0x20 ADD PUSH15 0x1C9BDBDD12590B08199A5B1950DA59 PUSH1 0x8A SHL DUP2 MSTORE POP PUSH2 0x282 DUP11 PUSH2 0xA0A JUMP JUMPDEST PUSH2 0x28B DUP11 PUSH2 0xA0A JUMP JUMPDEST PUSH1 0x40 MLOAD PUSH1 0x20 ADD PUSH2 0x29C SWAP3 SWAP2 SWAP1 PUSH2 0x10AC JUMP JUMPDEST PUSH1 0x40 MLOAD PUSH1 0x20 DUP2 DUP4 SUB SUB DUP2 MSTORE SWAP1 PUSH1 0x40 MSTORE PUSH2 0xA33 JUMP JUMPDEST PUSH1 0x40 MLOAD DUP5 PUSH4 0xFFFFFFFF AND PUSH1 0xE0 SHL DUP2 MSTORE PUSH1 0x4 ADD PUSH2 0x2CE SWAP4 SWAP3 SWAP2 SWAP1 PUSH2 0x10E8 JUMP JUMPDEST PUSH1 0x0 PUSH1 0x40 MLOAD DUP1 DUP4 SUB DUP2 PUSH1 0x0 DUP8 DUP1 EXTCODESIZE ISZERO DUP1 ISZERO PUSH2 0x2E8 JUMPI PUSH1 0x0 DUP1 REVERT JUMPDEST POP GAS CALL ISZERO DUP1 ISZERO PUSH2 0x2FC JUMPI RETURNDATASIZE PUSH1 0x0 DUP1 RETURNDATACOPY RETURNDATASIZE PUSH1 0x0 REVERT JUMPDEST POP POP POP POP PUSH32 0xB7379D6DF185794B466F2CFC6F723DECA1680B4062A01826168681A7514A5AA8 PUSH1 0x0 SLOAD PUSH1 0x1 DUP5 DUP5 PUSH1 0x40 MLOAD PUSH2 0x338 SWAP5 SWAP4 SWAP3 SWAP2 SWAP1 PUSH2 0x11BC JUMP JUMPDEST PUSH1 0x40 MLOAD DUP1 SWAP2 SUB SWAP1 LOG1 POP POP JUMP JUMPDEST PUSH1 0x2 DUP2 SWAP1 SSTORE PUSH1 0x40 MLOAD DUP2 DUP2 MSTORE PUSH32 0x2464DC1EDF59068643C5A03B10D5966B709DFA3BF1D6743E75E60CFAE2C63E3 SWAP1 PUSH1 0x20 ADD PUSH1 0x40 MLOAD DUP1 SWAP2 SUB SWAP1 LOG1 POP JUMP JUMPDEST PUSH1 0x40 DUP1 MLOAD PUSH1 0xC0 DUP2 ADD DUP3 MSTORE PUSH1 0x0 DUP1 DUP3 MSTORE PUSH1 0x20 DUP3 ADD DUP2 SWAP1 MSTORE SWAP2 DUP2 ADD DUP3 SWAP1 MSTORE PUSH1 0x60 DUP1 DUP3 ADD DUP2 SWAP1 MSTORE PUSH1 0x80 DUP3 ADD DUP2 SWAP1 MSTORE PUSH1 0xA0 DUP3 ADD MSTORE SWAP1 DUP1 REVERT JUMPDEST PUSH1 0x0 PUSH2 0x3C8 DUP3 PUSH8 0xFFFFFFFFFFFFFFFF AND PUSH2 0xA72 JUMP JUMPDEST PUSH1 0x40 MLOAD PUSH1 0x20 ADD PUSH2 0x3D8 SWAP2 SWAP1 PUSH2 0x1206 JUMP JUMPDEST PUSH1 0x40 MLOAD PUSH1 0x20 DUP2 DUP4 SUB SUB DUP2 MSTORE SWAP1 PUSH1 0x40 MSTORE SWAP1 POP PUSH2 0x3F1 PUSH2 0x854 JUMP JUMPDEST PUSH1 0x1 PUSH1 0x1 PUSH1 0xA0 SHL SUB AND PUSH4 0x377AF0DA ADDRESS PUSH1 0x0 SLOAD PUSH2 0x436 PUSH1 0x40 MLOAD DUP1 PUSH1 0x40 ADD PUSH1 0x40 MSTORE DUP1 PUSH1 0xE DUP2 MSTORE PUSH1 0x20 ADD PUSH14 0x66696C65696E666F5F7461626C65 PUSH1 0x90 SHL DUP2 MSTORE POP PUSH1 0x0 SLOAD DUP8 PUSH2 0xB05 JUMP JUMPDEST PUSH1 0x40 MLOAD DUP5 PUSH4 0xFFFFFFFF AND PUSH1 0xE0 SHL DUP2 MSTORE PUSH1 0x4 ADD PUSH2 0x454 SWAP4 SWAP3 SWAP2 SWAP1 PUSH2 0x10E8 JUMP JUMPDEST PUSH1 0x0 PUSH1 0x40 MLOAD DUP1 DUP4 SUB DUP2 PUSH1 0x0 DUP8 DUP1 EXTCODESIZE ISZERO DUP1 ISZERO PUSH2 0x46E JUMPI PUSH1 0x0 DUP1 REVERT JUMPDEST POP GAS CALL ISZERO DUP1 ISZERO PUSH2 0x482 JUMPI RETURNDATASIZE PUSH1 0x0 DUP1 RETURNDATACOPY RETURNDATASIZE PUSH1 0x0 REVERT JUMPDEST POP POP POP POP PUSH32 0x7B38A39FC9F8CEA88036A49CA103F0521F7758AF730B4CA9E0CEACFDF8C80235 PUSH1 0x0 SLOAD PUSH1 0x1 PUSH1 0x40 MLOAD PUSH2 0x338 SWAP3 SWAP2 SWAP1 PUSH2 0x1231 JUMP JUMPDEST PUSH1 0x60 PUSH2 0x4EE PUSH1 0x40 MLOAD DUP1 PUSH1 0x40 ADD PUSH1 0x40 MSTORE DUP1 PUSH1 0xE DUP2 MSTORE PUSH1 0x20 ADD PUSH14 0x66696C65696E666F5F7461626C65 PUSH1 0x90 SHL DUP2 MSTORE POP PUSH1 0x0 SLOAD PUSH2 0xB41 JUMP JUMPDEST SWAP1 POP SWAP1 JUMP JUMPDEST PUSH1 0x40 DUP1 MLOAD PUSH1 0xC0 DUP2 ADD DUP3 MSTORE PUSH1 0x0 DUP1 DUP3 MSTORE PUSH1 0x20 DUP3 ADD DUP2 SWAP1 MSTORE DUP2 DUP4 ADD DUP2 SWAP1 MSTORE PUSH1 0x60 DUP1 DUP4 ADD DUP2 SWAP1 MSTORE PUSH1 0x80 DUP4 ADD DUP2 SWAP1 MSTORE PUSH1 0xA0 DUP4 ADD DUP2 SWAP1 MSTORE DUP4 MLOAD PUSH1 0x2 DUP1 DUP3 MSTORE SWAP2 DUP2 ADD SWAP1 SWAP5 MSTORE SWAP2 SWAP3 SWAP1 SWAP2 DUP2 PUSH1 0x20 ADD JUMPDEST PUSH1 0x60 DUP2 MSTORE PUSH1 0x20 ADD SWAP1 PUSH1 0x1 SWAP1 SUB SWAP1 DUP2 PUSH2 0x53B JUMPI SWAP1 POP POP SWAP1 POP PUSH1 0x40 MLOAD DUP1 PUSH1 0x40 ADD PUSH1 0x40 MSTORE DUP1 PUSH1 0x6 DUP2 MSTORE PUSH1 0x20 ADD PUSH6 0x1C9BDBDD1259 PUSH1 0xD2 SHL DUP2 MSTORE POP DUP2 PUSH1 0x0 DUP2 MLOAD DUP2 LT PUSH2 0x584 JUMPI PUSH2 0x584 PUSH2 0x1252 JUMP JUMPDEST PUSH1 0x20 MUL PUSH1 0x20 ADD ADD DUP2 SWAP1 MSTORE POP PUSH1 0x40 MLOAD DUP1 PUSH1 0x40 ADD PUSH1 0x40 MSTORE DUP1 PUSH1 0x7 DUP2 MSTORE PUSH1 0x20 ADD PUSH7 0x199A5B1950DA59 PUSH1 0xCA SHL DUP2 MSTORE POP DUP2 PUSH1 0x1 DUP2 MLOAD DUP2 LT PUSH2 0x5C2 JUMPI PUSH2 0x5C2 PUSH2 0x1252 JUMP JUMPDEST PUSH1 0x20 MUL PUSH1 0x20 ADD ADD DUP2 SWAP1 MSTORE POP PUSH1 0x40 MLOAD DUP1 PUSH1 0xC0 ADD PUSH1 0x40 MSTORE DUP1 PUSH1 0x1 ISZERO ISZERO DUP2 MSTORE PUSH1 0x20 ADD PUSH1 0x1 ISZERO ISZERO DUP2 MSTORE PUSH1 0x20 ADD PUSH1 0x1 ISZERO ISZERO DUP2 MSTORE PUSH1 0x20 ADD PUSH1 0x40 MLOAD DUP1 PUSH1 0x20 ADD PUSH1 0x40 MSTORE DUP1 PUSH1 0x0 DUP2 MSTORE POP DUP2 MSTORE PUSH1 0x20 ADD PUSH1 0x40 MLOAD DUP1 PUSH1 0x20 ADD PUSH1 0x40 MSTORE DUP1 PUSH1 0x0 DUP2 MSTORE POP DUP2 MSTORE PUSH1 0x20 ADD DUP3 DUP2 MSTORE POP SWAP2 POP POP SWAP3 SWAP2 POP POP JUMP JUMPDEST PUSH1 0x3 SLOAD PUSH1 0x1 PUSH1 0x1 PUSH1 0xA0 SHL SUB AND CALLER EQ PUSH2 0x689 JUMPI PUSH1 0x40 MLOAD PUSH3 0x461BCD PUSH1 0xE5 SHL DUP2 MSTORE PUSH1 0x20 PUSH1 0x4 DUP3 ADD MSTORE PUSH1 0x18 PUSH1 0x24 DUP3 ADD MSTORE PUSH32 0x6D73672E73656E646572206D757374206265206F776E65720000000000000000 PUSH1 0x44 DUP3 ADD MSTORE PUSH1 0x64 ADD JUMPDEST PUSH1 0x40 MLOAD DUP1 SWAP2 SUB SWAP1 REVERT JUMPDEST PUSH2 0x691 PUSH2 0x854 JUMP JUMPDEST PUSH1 0x0 SLOAD PUSH1 0x40 MLOAD PUSH4 0x8BB0AB97 PUSH1 0xE0 SHL DUP2 MSTORE ADDRESS PUSH1 0x4 DUP3 ADD DUP2 SWAP1 MSTORE PUSH1 0x24 DUP3 ADD SWAP3 SWAP1 SWAP3 MSTORE PUSH1 0x44 DUP2 ADD SWAP2 SWAP1 SWAP2 MSTORE PUSH1 0x1 PUSH1 0x1 PUSH1 0xA0 SHL SUB SWAP2 SWAP1 SWAP2 AND SWAP1 PUSH4 0x8BB0AB97 SWAP1 PUSH1 0x64 ADD PUSH1 0x0 PUSH1 0x40 MLOAD DUP1 DUP4 SUB DUP2 PUSH1 0x0 DUP8 DUP1 EXTCODESIZE ISZERO DUP1 ISZERO PUSH2 0x6E9 JUMPI PUSH1 0x0 DUP1 REVERT JUMPDEST POP GAS CALL ISZERO DUP1 ISZERO PUSH2 0x6FD JUMPI RETURNDATASIZE PUSH1 0x0 DUP1 RETURNDATACOPY RETURNDATASIZE PUSH1 0x0 REVERT JUMPDEST POP POP POP POP JUMP JUMPDEST PUSH1 0x0 PUSH2 0x70E DUP4 PUSH2 0xA0A JUMP JUMPDEST PUSH2 0x717 DUP4 PUSH2 0xA0A JUMP JUMPDEST PUSH1 0x40 MLOAD PUSH1 0x20 ADD PUSH2 0x728 SWAP3 SWAP2 SWAP1 PUSH2 0x1268 JUMP JUMPDEST PUSH1 0x40 MLOAD PUSH1 0x20 DUP2 DUP4 SUB SUB DUP2 MSTORE SWAP1 PUSH1 0x40 MSTORE SWAP1 POP PUSH1 0x0 PUSH2 0x74E DUP6 PUSH8 0xFFFFFFFFFFFFFFFF AND PUSH2 0xA72 JUMP JUMPDEST PUSH1 0x40 MLOAD PUSH1 0x20 ADD PUSH2 0x75E SWAP2 SWAP1 PUSH2 0x1206 JUMP JUMPDEST PUSH1 0x40 MLOAD PUSH1 0x20 DUP2 DUP4 SUB SUB DUP2 MSTORE SWAP1 PUSH1 0x40 MSTORE SWAP1 POP PUSH2 0x777 PUSH2 0x854 JUMP JUMPDEST PUSH1 0x1 PUSH1 0x1 PUSH1 0xA0 SHL SUB AND PUSH4 0x377AF0DA ADDRESS PUSH1 0x0 SLOAD PUSH2 0x7BD PUSH1 0x40 MLOAD DUP1 PUSH1 0x40 ADD PUSH1 0x40 MSTORE DUP1 PUSH1 0xE DUP2 MSTORE PUSH1 0x20 ADD PUSH14 0x66696C65696E666F5F7461626C65 PUSH1 0x90 SHL DUP2 MSTORE POP PUSH1 0x0 SLOAD DUP9 DUP9 PUSH2 0xB7F JUMP JUMPDEST PUSH1 0x40 MLOAD DUP5 PUSH4 0xFFFFFFFF AND PUSH1 0xE0 SHL DUP2 MSTORE PUSH1 0x4 ADD PUSH2 0x7DB SWAP4 SWAP3 SWAP2 SWAP1 PUSH2 0x10E8 JUMP JUMPDEST PUSH1 0x0 PUSH1 0x40 MLOAD DUP1 DUP4 SUB DUP2 PUSH1 0x0 DUP8 DUP1 EXTCODESIZE ISZERO DUP1 ISZERO PUSH2 0x7F5 JUMPI PUSH1 0x0 DUP1 REVERT JUMPDEST POP GAS CALL ISZERO DUP1 ISZERO PUSH2 0x809 JUMPI RETURNDATASIZE PUSH1 0x0 DUP1 RETURNDATACOPY RETURNDATASIZE PUSH1 0x0 REVERT JUMPDEST POP POP POP POP PUSH32 0xEB49F7181CC0DA7406125224373EEE9A7E5B640FD401F42801B825006AAC841B PUSH1 0x0 SLOAD PUSH1 0x1 DUP7 DUP7 PUSH1 0x40 MLOAD PUSH2 0x845 SWAP5 SWAP4 SWAP3 SWAP2 SWAP1 PUSH2 0x11BC JUMP JUMPDEST PUSH1 0x40 MLOAD DUP1 SWAP2 SUB SWAP1 LOG1 POP POP POP POP POP JUMP JUMPDEST PUSH1 0x0 CHAINID PUSH1 0x1 SUB PUSH2 0x877 JUMPI POP PUSH20 0x12969F7E3439A9B04025B5A049EB9BAD82A8C12 SWAP1 JUMP JUMPDEST CHAINID PUSH1 0xA SUB PUSH2 0x898 JUMPI POP PUSH20 0xFAD44BF5B843DE943A09D4F3E84949A11D3AA3E6 SWAP1 JUMP JUMPDEST CHAINID PUSH2 0xA4B1 SUB PUSH2 0x8BA JUMPI POP PUSH20 0x9ABD75E8640871A5A20D3B4EE6330A04C962AFFD SWAP1 JUMP JUMPDEST CHAINID PUSH2 0xA4BA SUB PUSH2 0x8DC JUMPI POP PUSH20 0x1A22854C5B1642760A827F20137A67930AE108D2 SWAP1 JUMP JUMPDEST CHAINID PUSH1 0x89 SUB PUSH2 0x8FD JUMPI POP PUSH20 0x5C4E6A9E5C1E1BF445A062006FAF19EA6C49AFEA SWAP1 JUMP JUMPDEST CHAINID PUSH2 0x13A SUB PUSH2 0x91F JUMPI POP PUSH20 0x59EF8BF2D6C102B4C42AEF9189E1A9F0ABFD652D SWAP1 JUMP JUMPDEST CHAINID PUSH3 0xAA36A7 SUB PUSH2 0x942 JUMPI POP PUSH20 0xC50C62498448ACC8DBDE43DA77F8D5D2E2C7597D SWAP1 JUMP JUMPDEST CHAINID PUSH2 0x1A4 SUB PUSH2 0x964 JUMPI POP PUSH20 0xC72E8A7BE04F2469F8C2DB3F1BDF69A7D516ABBA SWAP1 JUMP JUMPDEST CHAINID PUSH3 0x66EEE SUB PUSH2 0x987 JUMPI POP PUSH20 0x223A74B8323914AFDC3FF1E5005564DC17231D6E SWAP1 JUMP JUMPDEST CHAINID PUSH3 0x13881 SUB PUSH2 0x9AA JUMPI POP PUSH20 0x4B48841D4B32C4650E4ABC117A03FE8B51F38F68 SWAP1 JUMP JUMPDEST CHAINID PUSH3 0x4CB2F SUB PUSH2 0x9CD JUMPI POP PUSH20 0x30BCF3D50CAD04C2E57391B12740982A9308621 SWAP1 JUMP JUMPDEST CHAINID PUSH2 0x7A69 SUB PUSH2 0x9EF JUMPI POP PUSH20 0xE7F1725E7734CE288F8367E1BB143E90BB3F0512 SWAP1 JUMP JUMPDEST PUSH1 0x40 MLOAD PUSH4 0x264E42CF PUSH1 0xE0 SHL DUP2 MSTORE CHAINID PUSH1 0x4 DUP3 ADD MSTORE PUSH1 0x24 ADD PUSH2 0x680 JUMP JUMPDEST PUSH1 0x60 DUP2 PUSH1 0x40 MLOAD PUSH1 0x20 ADD PUSH2 0xA1D SWAP2 SWAP1 PUSH2 0x12C8 JUMP JUMPDEST PUSH1 0x40 MLOAD PUSH1 0x20 DUP2 DUP4 SUB SUB DUP2 MSTORE SWAP1 PUSH1 0x40 MSTORE SWAP1 POP SWAP2 SWAP1 POP JUMP JUMPDEST PUSH1 0x60 PUSH1 0x0 PUSH2 0xA41 DUP7 DUP7 PUSH2 0xB41 JUMP JUMPDEST SWAP1 POP DUP1 DUP5 DUP5 PUSH1 0x40 MLOAD PUSH1 0x20 ADD PUSH2 0xA58 SWAP4 SWAP3 SWAP2 SWAP1 PUSH2 0x12F6 JUMP JUMPDEST PUSH1 0x40 MLOAD PUSH1 0x20 DUP2 DUP4 SUB SUB DUP2 MSTORE SWAP1 PUSH1 0x40 MSTORE SWAP2 POP POP SWAP5 SWAP4 POP POP POP POP JUMP JUMPDEST PUSH1 0x60 PUSH1 0x0 PUSH2 0xA7F DUP4 PUSH2 0xBFA JUMP JUMPDEST PUSH1 0x1 ADD SWAP1 POP PUSH1 0x0 DUP2 PUSH8 0xFFFFFFFFFFFFFFFF DUP2 GT ISZERO PUSH2 0xA9F JUMPI PUSH2 0xA9F PUSH2 0xCD3 JUMP JUMPDEST PUSH1 0x40 MLOAD SWAP1 DUP1 DUP3 MSTORE DUP1 PUSH1 0x1F ADD PUSH1 0x1F NOT AND PUSH1 0x20 ADD DUP3 ADD PUSH1 0x40 MSTORE DUP1 ISZERO PUSH2 0xAC9 JUMPI PUSH1 0x20 DUP3 ADD DUP2 DUP1 CALLDATASIZE DUP4 CALLDATACOPY ADD SWAP1 POP JUMPDEST POP SWAP1 POP DUP2 DUP2 ADD PUSH1 0x20 ADD JUMPDEST PUSH1 0x0 NOT ADD PUSH16 0x181899199A1A9B1B9C1CB0B131B232B3 PUSH1 0x81 SHL PUSH1 0xA DUP7 MOD BYTE DUP2 MSTORE8 PUSH1 0xA DUP6 DIV SWAP5 POP DUP5 PUSH2 0xAD3 JUMPI POP SWAP4 SWAP3 POP POP POP JUMP JUMPDEST PUSH1 0x60 PUSH1 0x0 PUSH2 0xB13 DUP6 DUP6 PUSH2 0xB41 JUMP JUMPDEST SWAP1 POP DUP1 DUP4 PUSH1 0x40 MLOAD PUSH1 0x20 ADD PUSH2 0xB28 SWAP3 SWAP2 SWAP1 PUSH2 0x1382 JUMP JUMPDEST PUSH1 0x40 MLOAD PUSH1 0x20 DUP2 DUP4 SUB SUB DUP2 MSTORE SWAP1 PUSH1 0x40 MSTORE SWAP2 POP POP SWAP4 SWAP3 POP POP POP JUMP JUMPDEST PUSH1 0x60 DUP3 PUSH2 0xB4D CHAINID PUSH2 0xA72 JUMP JUMPDEST PUSH2 0xB56 DUP5 PUSH2 0xA72 JUMP JUMPDEST PUSH1 0x40 MLOAD PUSH1 0x20 ADD PUSH2 0xB68 SWAP4 SWAP3 SWAP2 SWAP1 PUSH2 0x13DC JUMP JUMPDEST PUSH1 0x40 MLOAD PUSH1 0x20 DUP2 DUP4 SUB SUB DUP2 MSTORE SWAP1 PUSH1 0x40 MSTORE SWAP1 POP SWAP3 SWAP2 POP POP JUMP JUMPDEST PUSH1 0x60 PUSH1 0x0 PUSH2 0xB8D DUP7 DUP7 PUSH2 0xB41 JUMP JUMPDEST PUSH1 0x40 DUP1 MLOAD PUSH1 0x20 DUP2 ADD SWAP1 SWAP2 MSTORE PUSH1 0x0 DUP2 MSTORE DUP5 MLOAD SWAP2 SWAP3 POP SWAP1 ISZERO PUSH2 0xBCA JUMPI DUP4 PUSH1 0x40 MLOAD PUSH1 0x20 ADD PUSH2 0xBB8 SWAP2 SWAP1 PUSH2 0x1436 JUMP JUMPDEST PUSH1 0x40 MLOAD PUSH1 0x20 DUP2 DUP4 SUB SUB DUP2 MSTORE SWAP1 PUSH1 0x40 MSTORE SWAP1 POP JUMPDEST DUP2 DUP6 DUP3 PUSH1 0x40 MLOAD PUSH1 0x20 ADD PUSH2 0xBDF SWAP4 SWAP3 SWAP2 SWAP1 PUSH2 0x1465 JUMP JUMPDEST PUSH1 0x40 MLOAD PUSH1 0x20 DUP2 DUP4 SUB SUB DUP2 MSTORE SWAP1 PUSH1 0x40 MSTORE SWAP3 POP POP POP SWAP5 SWAP4 POP POP POP POP JUMP JUMPDEST PUSH1 0x0 DUP1 PUSH19 0x184F03E93FF9F4DAA797ED6E38ED64BF6A1F01 PUSH1 0x40 SHL DUP4 LT PUSH2 0xC39 JUMPI PUSH19 0x184F03E93FF9F4DAA797ED6E38ED64BF6A1F01 PUSH1 0x40 SHL DUP4 DIV SWAP3 POP PUSH1 0x40 ADD JUMPDEST PUSH14 0x4EE2D6D415B85ACEF8100000000 DUP4 LT PUSH2 0xC65 JUMPI PUSH14 0x4EE2D6D415B85ACEF8100000000 DUP4 DIV SWAP3 POP PUSH1 0x20 ADD JUMPDEST PUSH7 0x2386F26FC10000 DUP4 LT PUSH2 0xC83 JUMPI PUSH7 0x2386F26FC10000 DUP4 DIV SWAP3 POP PUSH1 0x10 ADD JUMPDEST PUSH4 0x5F5E100 DUP4 LT PUSH2 0xC9B JUMPI PUSH4 0x5F5E100 DUP4 DIV SWAP3 POP PUSH1 0x8 ADD JUMPDEST PUSH2 0x2710 DUP4 LT PUSH2 0xCAF JUMPI PUSH2 0x2710 DUP4 DIV SWAP3 POP PUSH1 0x4 ADD JUMPDEST PUSH1 0x64 DUP4 LT PUSH2 0xCC1 JUMPI PUSH1 0x64 DUP4 DIV SWAP3 POP PUSH1 0x2 ADD JUMPDEST PUSH1 0xA DUP4 LT PUSH2 0xCCD JUMPI PUSH1 0x1 ADD JUMPDEST SWAP3 SWAP2 POP POP JUMP JUMPDEST PUSH4 0x4E487B71 PUSH1 0xE0 SHL PUSH1 0x0 MSTORE PUSH1 0x41 PUSH1 0x4 MSTORE PUSH1 0x24 PUSH1 0x0 REVERT JUMPDEST PUSH1 0x0 PUSH8 0xFFFFFFFFFFFFFFFF DUP1 DUP5 GT ISZERO PUSH2 0xD04 JUMPI PUSH2 0xD04 PUSH2 0xCD3 JUMP JUMPDEST PUSH1 0x40 MLOAD PUSH1 0x1F DUP6 ADD PUSH1 0x1F NOT SWAP1 DUP2 AND PUSH1 0x3F ADD AND DUP2 ADD SWAP1 DUP3 DUP3 GT DUP2 DUP4 LT OR ISZERO PUSH2 0xD2C JUMPI PUSH2 0xD2C PUSH2 0xCD3 JUMP JUMPDEST DUP2 PUSH1 0x40 MSTORE DUP1 SWAP4 POP DUP6 DUP2 MSTORE DUP7 DUP7 DUP7 ADD GT ISZERO PUSH2 0xD45 JUMPI PUSH1 0x0 DUP1 REVERT JUMPDEST DUP6 DUP6 PUSH1 0x20 DUP4 ADD CALLDATACOPY PUSH1 0x0 PUSH1 0x20 DUP8 DUP4 ADD ADD MSTORE POP POP POP SWAP4 SWAP3 POP POP POP JUMP JUMPDEST PUSH1 0x0 DUP3 PUSH1 0x1F DUP4 ADD SLT PUSH2 0xD70 JUMPI PUSH1 0x0 DUP1 REVERT JUMPDEST PUSH2 0xD7F DUP4 DUP4 CALLDATALOAD PUSH1 0x20 DUP6 ADD PUSH2 0xCE9 JUMP JUMPDEST SWAP4 SWAP3 POP POP POP JUMP JUMPDEST PUSH1 0x0 DUP1 PUSH1 0x40 DUP4 DUP6 SUB SLT ISZERO PUSH2 0xD99 JUMPI PUSH1 0x0 DUP1 REVERT JUMPDEST DUP3 CALLDATALOAD PUSH8 0xFFFFFFFFFFFFFFFF DUP1 DUP3 GT ISZERO PUSH2 0xDB1 JUMPI PUSH1 0x0 DUP1 REVERT JUMPDEST PUSH2 0xDBD DUP7 DUP4 DUP8 ADD PUSH2 0xD5F JUMP JUMPDEST SWAP4 POP PUSH1 0x20 DUP6 ADD CALLDATALOAD SWAP2 POP DUP1 DUP3 GT ISZERO PUSH2 0xDD3 JUMPI PUSH1 0x0 DUP1 REVERT JUMPDEST POP PUSH2 0xDE0 DUP6 DUP3 DUP7 ADD PUSH2 0xD5F JUMP JUMPDEST SWAP2 POP POP SWAP3 POP SWAP3 SWAP1 POP JUMP JUMPDEST DUP1 CALLDATALOAD PUSH1 0x1 PUSH1 0x1 PUSH1 0xA0 SHL SUB DUP2 AND DUP2 EQ PUSH2 0xE01 JUMPI PUSH1 0x0 DUP1 REVERT JUMPDEST SWAP2 SWAP1 POP JUMP JUMPDEST PUSH1 0x0 DUP1 PUSH1 0x0 DUP1 PUSH1 0x80 DUP6 DUP8 SUB SLT ISZERO PUSH2 0xE1C JUMPI PUSH1 0x0 DUP1 REVERT JUMPDEST PUSH2 0xE25 DUP6 PUSH2 0xDEA JUMP JUMPDEST SWAP4 POP PUSH2 0xE33 PUSH1 0x20 DUP7 ADD PUSH2 0xDEA JUMP JUMPDEST SWAP3 POP PUSH1 0x40 DUP6 ADD CALLDATALOAD SWAP2 POP PUSH1 0x60 DUP6 ADD CALLDATALOAD PUSH8 0xFFFFFFFFFFFFFFFF DUP2 GT ISZERO PUSH2 0xE56 JUMPI PUSH1 0x0 DUP1 REVERT JUMPDEST DUP6 ADD PUSH1 0x1F DUP2 ADD DUP8 SGT PUSH2 0xE67 JUMPI PUSH1 0x0 DUP1 REVERT JUMPDEST PUSH2 0xE76 DUP8 DUP3 CALLDATALOAD PUSH1 0x20 DUP5 ADD PUSH2 0xCE9 JUMP JUMPDEST SWAP2 POP POP SWAP3 SWAP6 SWAP2 SWAP5 POP SWAP3 POP JUMP JUMPDEST PUSH1 0x0 PUSH1 0x20 DUP3 DUP5 SUB SLT ISZERO PUSH2 0xE94 JUMPI PUSH1 0x0 DUP1 REVERT JUMPDEST POP CALLDATALOAD SWAP2 SWAP1 POP JUMP JUMPDEST PUSH1 0x0 PUSH1 0x20 DUP3 DUP5 SUB SLT ISZERO PUSH2 0xEAD JUMPI PUSH1 0x0 DUP1 REVERT JUMPDEST PUSH2 0xD7F DUP3 PUSH2 0xDEA JUMP JUMPDEST PUSH1 0x0 JUMPDEST DUP4 DUP2 LT ISZERO PUSH2 0xED1 JUMPI DUP2 DUP2 ADD MLOAD DUP4 DUP3 ADD MSTORE PUSH1 0x20 ADD PUSH2 0xEB9 JUMP JUMPDEST POP POP PUSH1 0x0 SWAP2 ADD MSTORE JUMP JUMPDEST PUSH1 0x0 DUP2 MLOAD DUP1 DUP5 MSTORE PUSH2 0xEF2 DUP2 PUSH1 0x20 DUP7 ADD PUSH1 0x20 DUP7 ADD PUSH2 0xEB6 JUMP JUMPDEST PUSH1 0x1F ADD PUSH1 0x1F NOT AND SWAP3 SWAP1 SWAP3 ADD PUSH1 0x20 ADD SWAP3 SWAP2 POP POP JUMP JUMPDEST PUSH1 0x0 PUSH1 0x20 DUP1 DUP4 MSTORE DUP4 MLOAD ISZERO ISZERO DUP2 DUP5 ADD MSTORE DUP1 DUP5 ADD MLOAD ISZERO ISZERO PUSH1 0x40 DUP5 ADD MSTORE PUSH1 0x40 DUP5 ADD MLOAD ISZERO ISZERO PUSH1 0x60 DUP5 ADD MSTORE PUSH1 0x60 DUP5 ADD MLOAD PUSH1 0xC0 PUSH1 0x80 DUP6 ADD MSTORE PUSH2 0xF45 PUSH1 0xE0 DUP6 ADD DUP3 PUSH2 0xEDA JUMP JUMPDEST SWAP1 POP PUSH1 0x80 DUP6 ADD MLOAD PUSH1 0x1F NOT DUP1 DUP7 DUP5 SUB ADD PUSH1 0xA0 DUP8 ADD MSTORE PUSH2 0xF63 DUP4 DUP4 PUSH2 0xEDA JUMP JUMPDEST PUSH1 0xA0 DUP9 ADD MLOAD DUP8 DUP3 SUB DUP4 ADD PUSH1 0xC0 DUP10 ADD MSTORE DUP1 MLOAD DUP1 DUP4 MSTORE SWAP2 SWAP5 POP DUP6 ADD SWAP3 POP DUP5 DUP5 ADD SWAP1 PUSH1 0x5 DUP2 SWAP1 SHL DUP6 ADD DUP7 ADD PUSH1 0x0 JUMPDEST DUP3 DUP2 LT ISZERO PUSH2 0xFBA JUMPI DUP5 DUP8 DUP4 SUB ADD DUP5 MSTORE PUSH2 0xFA8 DUP3 DUP8 MLOAD PUSH2 0xEDA JUMP JUMPDEST SWAP6 DUP9 ADD SWAP6 SWAP4 DUP9 ADD SWAP4 SWAP2 POP PUSH1 0x1 ADD PUSH2 0xF8E JUMP JUMPDEST POP SWAP10 SWAP9 POP POP POP POP POP POP POP POP POP JUMP JUMPDEST DUP1 CALLDATALOAD PUSH8 0xFFFFFFFFFFFFFFFF DUP2 AND DUP2 EQ PUSH2 0xE01 JUMPI PUSH1 0x0 DUP1 REVERT JUMPDEST PUSH1 0x0 PUSH1 0x20 DUP3 DUP5 SUB SLT ISZERO PUSH2 0xFF2 JUMPI PUSH1 0x0 DUP1 REVERT JUMPDEST PUSH2 0xD7F DUP3 PUSH2 0xFC8 JUMP JUMPDEST PUSH1 0x20 DUP2 MSTORE PUSH1 0x0 PUSH2 0xD7F PUSH1 0x20 DUP4 ADD DUP5 PUSH2 0xEDA JUMP JUMPDEST PUSH1 0x0 DUP1 PUSH1 0x40 DUP4 DUP6 SUB SLT ISZERO PUSH2 0x1021 JUMPI PUSH1 0x0 DUP1 REVERT JUMPDEST PUSH2 0x102A DUP4 PUSH2 0xDEA JUMP JUMPDEST SWAP5 PUSH1 0x20 SWAP4 SWAP1 SWAP4 ADD CALLDATALOAD SWAP4 POP POP POP JUMP JUMPDEST PUSH1 0x0 DUP1 PUSH1 0x0 PUSH1 0x60 DUP5 DUP7 SUB SLT ISZERO PUSH2 0x104D JUMPI PUSH1 0x0 DUP1 REVERT JUMPDEST PUSH2 0x1056 DUP5 PUSH2 0xFC8 JUMP JUMPDEST SWAP3 POP PUSH1 0x20 DUP5 ADD CALLDATALOAD PUSH8 0xFFFFFFFFFFFFFFFF DUP1 DUP3 GT ISZERO PUSH2 0x1073 JUMPI PUSH1 0x0 DUP1 REVERT JUMPDEST PUSH2 0x107F DUP8 DUP4 DUP9 ADD PUSH2 0xD5F JUMP JUMPDEST SWAP4 POP PUSH1 0x40 DUP7 ADD CALLDATALOAD SWAP2 POP DUP1 DUP3 GT ISZERO PUSH2 0x1095 JUMPI PUSH1 0x0 DUP1 REVERT JUMPDEST POP PUSH2 0x10A2 DUP7 DUP3 DUP8 ADD PUSH2 0xD5F JUMP JUMPDEST SWAP2 POP POP SWAP3 POP SWAP3 POP SWAP3 JUMP JUMPDEST PUSH1 0x0 DUP4 MLOAD PUSH2 0x10BE DUP2 DUP5 PUSH1 0x20 DUP9 ADD PUSH2 0xEB6 JUMP JUMPDEST PUSH1 0xB PUSH1 0xFA SHL SWAP1 DUP4 ADD SWAP1 DUP2 MSTORE DUP4 MLOAD PUSH2 0x10DC DUP2 PUSH1 0x1 DUP5 ADD PUSH1 0x20 DUP9 ADD PUSH2 0xEB6 JUMP JUMPDEST ADD PUSH1 0x1 ADD SWAP5 SWAP4 POP POP POP POP JUMP JUMPDEST PUSH1 0x1 DUP1 PUSH1 0xA0 SHL SUB DUP5 AND DUP2 MSTORE DUP3 PUSH1 0x20 DUP3 ADD MSTORE PUSH1 0x60 PUSH1 0x40 DUP3 ADD MSTORE PUSH1 0x0 PUSH2 0x110F PUSH1 0x60 DUP4 ADD DUP5 PUSH2 0xEDA JUMP JUMPDEST SWAP6 SWAP5 POP POP POP POP POP JUMP JUMPDEST DUP1 SLOAD PUSH1 0x0 SWAP1 PUSH1 0x1 DUP2 DUP2 SHR SWAP1 DUP1 DUP4 AND DUP1 PUSH2 0x1132 JUMPI PUSH1 0x7F DUP4 AND SWAP3 POP JUMPDEST PUSH1 0x20 DUP1 DUP5 LT DUP3 SUB PUSH2 0x1153 JUMPI PUSH4 0x4E487B71 PUSH1 0xE0 SHL PUSH1 0x0 MSTORE PUSH1 0x22 PUSH1 0x4 MSTORE PUSH1 0x24 PUSH1 0x0 REVERT JUMPDEST DUP4 DUP9 MSTORE PUSH1 0x20 DUP9 ADD DUP3 DUP1 ISZERO PUSH2 0x116E JUMPI PUSH1 0x1 DUP2 EQ PUSH2 0x1184 JUMPI PUSH2 0x11AF JUMP JUMPDEST PUSH1 0xFF NOT DUP8 AND DUP3 MSTORE DUP6 ISZERO ISZERO PUSH1 0x5 SHL DUP3 ADD SWAP8 POP PUSH2 0x11AF JUMP JUMPDEST PUSH1 0x0 DUP10 DUP2 MSTORE PUSH1 0x20 SWAP1 KECCAK256 PUSH1 0x0 JUMPDEST DUP8 DUP2 LT ISZERO PUSH2 0x11A9 JUMPI DUP2 SLOAD DUP5 DUP3 ADD MSTORE SWAP1 DUP7 ADD SWAP1 DUP5 ADD PUSH2 0x1190 JUMP JUMPDEST DUP4 ADD SWAP9 POP POP JUMPDEST POP POP POP POP POP POP POP SWAP3 SWAP2 POP POP JUMP JUMPDEST DUP5 DUP2 MSTORE PUSH1 0x80 PUSH1 0x20 DUP3 ADD MSTORE PUSH1 0x0 PUSH2 0x11D5 PUSH1 0x80 DUP4 ADD DUP7 PUSH2 0x1118 JUMP JUMPDEST DUP3 DUP2 SUB PUSH1 0x40 DUP5 ADD MSTORE PUSH2 0x11E7 DUP2 DUP7 PUSH2 0xEDA JUMP JUMPDEST SWAP1 POP DUP3 DUP2 SUB PUSH1 0x60 DUP5 ADD MSTORE PUSH2 0x11FB DUP2 DUP6 PUSH2 0xEDA JUMP JUMPDEST SWAP8 SWAP7 POP POP POP POP POP POP POP JUMP JUMPDEST PUSH3 0x69643D PUSH1 0xE8 SHL DUP2 MSTORE PUSH1 0x0 DUP3 MLOAD PUSH2 0x1224 DUP2 PUSH1 0x3 DUP6 ADD PUSH1 0x20 DUP8 ADD PUSH2 0xEB6 JUMP JUMPDEST SWAP2 SWAP1 SWAP2 ADD PUSH1 0x3 ADD SWAP3 SWAP2 POP POP JUMP JUMPDEST DUP3 DUP2 MSTORE PUSH1 0x40 PUSH1 0x20 DUP3 ADD MSTORE PUSH1 0x0 PUSH2 0x124A PUSH1 0x40 DUP4 ADD DUP5 PUSH2 0x1118 JUMP JUMPDEST SWAP5 SWAP4 POP POP POP POP JUMP JUMPDEST PUSH4 0x4E487B71 PUSH1 0xE0 SHL PUSH1 0x0 MSTORE PUSH1 0x32 PUSH1 0x4 MSTORE PUSH1 0x24 PUSH1 0x0 REVERT JUMPDEST PUSH7 0x726F6F7449643D PUSH1 0xC8 SHL DUP2 MSTORE PUSH1 0x0 DUP4 MLOAD PUSH2 0x128A DUP2 PUSH1 0x7 DUP6 ADD PUSH1 0x20 DUP9 ADD PUSH2 0xEB6 JUMP JUMPDEST PUSH1 0xB PUSH1 0xFA SHL PUSH1 0x7 SWAP2 DUP5 ADD SWAP2 DUP3 ADD MSTORE PUSH8 0x66696C654369643D PUSH1 0xC0 SHL PUSH1 0x8 DUP3 ADD MSTORE DUP4 MLOAD PUSH2 0x12BC DUP2 PUSH1 0x10 DUP5 ADD PUSH1 0x20 DUP9 ADD PUSH2 0xEB6 JUMP JUMPDEST ADD PUSH1 0x10 ADD SWAP5 SWAP4 POP POP POP POP JUMP JUMPDEST PUSH1 0x0 PUSH1 0x27 PUSH1 0xF8 SHL DUP1 DUP4 MSTORE DUP4 MLOAD PUSH2 0x12E5 DUP2 PUSH1 0x1 DUP7 ADD PUSH1 0x20 DUP9 ADD PUSH2 0xEB6 JUMP JUMPDEST PUSH1 0x1 SWAP4 ADD SWAP3 DUP4 ADD MSTORE POP PUSH1 0x2 ADD SWAP2 SWAP1 POP JUMP JUMPDEST PUSH12 0x24A729A2A92A1024A72A279 PUSH1 0xA5 SHL DUP2 MSTORE PUSH1 0x0 DUP5 MLOAD PUSH2 0x131D DUP2 PUSH1 0xC DUP6 ADD PUSH1 0x20 DUP10 ADD PUSH2 0xEB6 JUMP JUMPDEST PUSH1 0x5 PUSH1 0xFB SHL PUSH1 0xC SWAP2 DUP5 ADD SWAP2 DUP3 ADD MSTORE DUP5 MLOAD PUSH2 0x133E DUP2 PUSH1 0xD DUP5 ADD PUSH1 0x20 DUP10 ADD PUSH2 0xEB6 JUMP JUMPDEST PUSH8 0x52AC8298AA8AA65 PUSH1 0xC3 SHL PUSH1 0xD SWAP3 SWAP1 SWAP2 ADD SWAP2 DUP3 ADD MSTORE DUP4 MLOAD PUSH2 0x1367 DUP2 PUSH1 0x15 DUP5 ADD PUSH1 0x20 DUP9 ADD PUSH2 0xEB6 JUMP JUMPDEST PUSH1 0x29 PUSH1 0xF8 SHL PUSH1 0x15 SWAP3 SWAP1 SWAP2 ADD SWAP2 DUP3 ADD MSTORE PUSH1 0x16 ADD SWAP6 SWAP5 POP POP POP POP POP JUMP JUMPDEST PUSH12 0x2222A622AA2290232927A69 PUSH1 0xA5 SHL DUP2 MSTORE PUSH1 0x0 DUP4 MLOAD PUSH2 0x13A9 DUP2 PUSH1 0xC DUP6 ADD PUSH1 0x20 DUP9 ADD PUSH2 0xEB6 JUMP JUMPDEST PUSH7 0x102BA422A9229 PUSH1 0xCD SHL PUSH1 0xC SWAP2 DUP5 ADD SWAP2 DUP3 ADD MSTORE DUP4 MLOAD PUSH2 0x13D0 DUP2 PUSH1 0x13 DUP5 ADD PUSH1 0x20 DUP9 ADD PUSH2 0xEB6 JUMP JUMPDEST ADD PUSH1 0x13 ADD SWAP5 SWAP4 POP POP POP POP JUMP JUMPDEST PUSH1 0x0 DUP5 MLOAD PUSH2 0x13EE DUP2 DUP5 PUSH1 0x20 DUP10 ADD PUSH2 0xEB6 JUMP JUMPDEST DUP1 DUP4 ADD SWAP1 POP PUSH1 0x5F PUSH1 0xF8 SHL DUP1 DUP3 MSTORE DUP6 MLOAD PUSH2 0x140E DUP2 PUSH1 0x1 DUP6 ADD PUSH1 0x20 DUP11 ADD PUSH2 0xEB6 JUMP JUMPDEST PUSH1 0x1 SWAP3 ADD SWAP2 DUP3 ADD MSTORE DUP4 MLOAD PUSH2 0x1429 DUP2 PUSH1 0x2 DUP5 ADD PUSH1 0x20 DUP9 ADD PUSH2 0xEB6 JUMP JUMPDEST ADD PUSH1 0x2 ADD SWAP6 SWAP5 POP POP POP POP POP JUMP JUMPDEST PUSH7 0x102BA422A9229 PUSH1 0xCD SHL DUP2 MSTORE PUSH1 0x0 DUP3 MLOAD PUSH2 0x1458 DUP2 PUSH1 0x7 DUP6 ADD PUSH1 0x20 DUP8 ADD PUSH2 0xEB6 JUMP JUMPDEST SWAP2 SWAP1 SWAP2 ADD PUSH1 0x7 ADD SWAP3 SWAP2 POP POP JUMP JUMPDEST PUSH7 0x2AA82220AA229 PUSH1 0xCD SHL DUP2 MSTORE PUSH1 0x0 DUP5 MLOAD PUSH2 0x1487 DUP2 PUSH1 0x7 DUP6 ADD PUSH1 0x20 DUP10 ADD PUSH2 0xEB6 JUMP JUMPDEST PUSH5 0x1029A2AA1 PUSH1 0xDD SHL PUSH1 0x7 SWAP2 DUP5 ADD SWAP2 DUP3 ADD MSTORE DUP5 MLOAD PUSH2 0x14AC DUP2 PUSH1 0xC DUP5 ADD PUSH1 0x20 DUP10 ADD PUSH2 0xEB6 JUMP JUMPDEST DUP5 MLOAD SWAP2 ADD SWAP1 PUSH2 0x14C2 DUP2 PUSH1 0xC DUP5 ADD PUSH1 0x20 DUP9 ADD PUSH2 0xEB6 JUMP JUMPDEST ADD PUSH1 0xC ADD SWAP6 SWAP5 POP POP POP POP POP JUMP INVALID LOG2 PUSH5 0x6970667358 0x22 SLT KECCAK256 0xA9 RETURNDATASIZE ADDRESS INVALID PUSH1 0xB0 DUP6 SSTORE SWAP5 0xCC DUP1 0xC 0xC8 0xAA ADDRESS 0x1F DUP2 0xA8 0xD5 DUP3 0xD4 PUSH18 0x1FAF5048529C71C8128064736F6C63430008 EQ STOP CALLER PUSH10 0x6420696E746567657220 PUSH17 0x72696D617279206B65792C726F6F744964 KECCAK256 PUSH21 0x6578742C66696C6543696420746578740000000000 "},"methodIdentifiers":{"deleteFileInfo(uint64)":"4b519373","getPolicy(address)":"3791dc6a","getPolicy(address,uint256)":"66df322e","getRootHash()":"80759f1f","getTableId()":"88e4f1cb","getTableName()":"5d5a33a2","insertFileInfo(string,string)":"0133e044","onERC721Received(address,address,uint256,bytes)":"150b7a02","setAccessControl()":"97f669c8","setRootHash(bytes32)":"2d7eae66","updateFileInfo(uint64,string,string)":"ee3b51b4"}},"storageLayout":{"storage":[{"astId":4272,"contract":"contracts/FileInfo.sol:FileInfo","label":"tableId","offset":0,"slot":"0","type":"t_uint256"},{"astId":4274,"contract":"contracts/FileInfo.sol:FileInfo","label":"tableName","offset":0,"slot":"1","type":"t_string_storage"},{"astId":4279,"contract":"contracts/FileInfo.sol:FileInfo","label":"rootHash","offset":0,"slot":"2","type":"t_bytes32"},{"astId":4281,"contract":"contracts/FileInfo.sol:FileInfo","label":"owner","offset":0,"slot":"3","type":"t_address"}],"types":{"t_address":{"encoding":"inplace","label":"address","numberOfBytes":"20"},"t_bytes32":{"encoding":"inplace","label":"bytes32","numberOfBytes":"32"},"t_string_storage":{"encoding":"bytes","label":"string","numberOfBytes":"32"},"t_uint256":{"encoding":"inplace","label":"uint256","numberOfBytes":"32"}}}}}}